{
    "Call10" : {
        "_info" : {
            "comment" : "",
            "filling-rpc-server" : "evmone-t8n 0.13.0-31+commit.37e2cffb",
            "filling-tool-version" : "retesteth-0.3.2-legacy+commit.c446cb9e.Linux.g++",
            "generatedTestHash" : "31b253a37dbaa4275d0346978f738376be900d1f5b0865239803e7c3232366a5",
            "lllcversion" : "Version: 0.5.14-develop.2024.11.5+commit.b2b86751.mod.Linux.g++",
            "solidity" : "Version: 0.8.24+commit.e11b9ed9.Linux.g++",
            "source" : "src/GeneralStateTestsFiller/stSystemOperationsTest/Call10Filler.json",
            "sourceHash" : "7dfad620a47387d070bcedb1d30750b4a57f30515c5b412d019e683c2f47aef8"
        },
        "env" : {
            "currentBaseFee" : "0x0a",
            "currentCoinbase" : "0xb94f5374fce5edbc8e2a8697c15331677e6ebf0b",
            "currentDifficulty" : "0x020000",
            "currentExcessBlobGas" : "0x00",
            "currentGasLimit" : "0x7fffffffffffffff",
            "currentNumber" : "0x01",
            "currentRandom" : "0x0000000000000000000000000000000000000000000000000000000000020000",
            "currentRequestsHash" : "0x6036c41849da9c076ed79654d434017387a88fb833c2856b32e18218b3341c5f",
            "currentTimestamp" : "0x03e8"
        },
        "post" : {
            "Cancun" : [
                {
                    "hash" : "0x60e1eabb2df6a5ee9044ac60d727838a52e4a6043bf43a5a61fc2e4d152122f7",
                    "indexes" : {
                        "data" : 0,
                        "gas" : 0,
                        "value" : 0
                    },
                    "logs" : "0x1dcc4de8dec75d7aab85b567b6ccd41ad312451b948a7413f0a142fd40d49347",
                    "txbytes" : "0xf865800a887f000ffffffffff094bbbf5374fce5edbc8e2a8697c15331677e6ebf0b0a801ca0cc716f76fe070932b29f95dcc3aff9ba92e56e39c8e288d6c3fb18ebeba4c9fba0551bf704610c52f9ca662fb9ebc8ab3547be4ec302fd2d26b2df248a4aa120ca"
                }
            ],
            "Prague" : [
                {
                    "hash" : "0x60e1eabb2df6a5ee9044ac60d727838a52e4a6043bf43a5a61fc2e4d152122f7",
                    "indexes" : {
                        "data" : 0,
                        "gas" : 0,
                        "value" : 0
                    },
                    "logs" : "0x1dcc4de8dec75d7aab85b567b6ccd41ad312451b948a7413f0a142fd40d49347",
                    "txbytes" : "0xf865800a887f000ffffffffff094bbbf5374fce5edbc8e2a8697c15331677e6ebf0b0a801ca0cc716f76fe070932b29f95dcc3aff9ba92e56e39c8e288d6c3fb18ebeba4c9fba0551bf704610c52f9ca662fb9ebc8ab3547be4ec302fd2d26b2df248a4aa120ca"
                }
            ]
        },
        "pre" : {
            "0xa94f5374fce5edbc8e2a8697c15331677e6ebf0b" : {
                "balance" : "0xffffffffffffffffffffffffffffffff",
                "code" : "0x",
                "nonce" : "0x00",
                "storage" : {
                }
            },
            "0xaaaf5374fce5edbc8e2a8697c15331677e6ebf0b" : {
                "balance" : "0x1b58",
                "code" : "0x",
                "nonce" : "0x00",
                "storage" : {
                }
            },
            "0xbbbf5374fce5edbc8e2a8697c15331677e6ebf0b" : {
                "balance" : "0x03e8",
                "code" : "0x5b600a60805110156042576000600061c3506000600173aaaf5374fce5edbc8e2a8697c15331677e6ebf0b650ffffffffffff16000556001608051016080526000565b60805160015500",
                "nonce" : "0x00",
                "storage" : {
                }
            }
        },
        "transaction" : {
            "data" : [
                "0x"
            ],
            "gasLimit" : [
                "0x7f000ffffffffff0"
            ],
            "gasPrice" : "0x0a",
            "nonce" : "0x00",
            "secretKey" : "0x45a915e4d060149eb4365960e6a7a45f334393093061116b197e3240065ff2d8",
            "sender" : "0xa94f5374fce5edbc8e2a8697c15331677e6ebf0b",
            "to" : "0xbbbf5374fce5edbc8e2a8697c15331677e6ebf0b",
            "value" : [
                "0x0a"
            ]
        }
    }
}