{
    "static_CallAndCallcodeConsumeMoreGasThenTransactionHas" : {
        "_info" : {
            "comment" : "",
            "filling-rpc-server" : "evmone-t8n 0.13.0-31+commit.37e2cffb",
            "filling-tool-version" : "retesteth-0.3.2-legacy+commit.c446cb9e.Linux.g++",
            "generatedTestHash" : "75ae9a357d48159b4d885af1912ba02dd43048d5106f2336d398a39fde8e831b",
            "lllcversion" : "Version: 0.5.14-develop.2024.11.5+commit.b2b86751.mod.Linux.g++",
            "solidity" : "Version: 0.8.24+commit.e11b9ed9.Linux.g++",
            "source" : "src/GeneralStateTestsFiller/stStaticCall/static_CallAndCallcodeConsumeMoreGasThenTransactionHasFiller.json",
            "sourceHash" : "6db777eff7380f5cc11d7563991c852e47b01f1c82404a5a606b05a2c771d679"
        },
        "env" : {
            "currentBaseFee" : "0x0a",
            "currentCoinbase" : "0x2adc25665018aa1fe0e6bc666dac8fc2697ff9ba",
            "currentDifficulty" : "0x020000",
            "currentExcessBlobGas" : "0x00",
            "currentGasLimit" : "0x989680",
            "currentNumber" : "0x01",
            "currentRandom" : "0x0000000000000000000000000000000000000000000000000000000000020000",
            "currentRequestsHash" : "0x6036c41849da9c076ed79654d434017387a88fb833c2856b32e18218b3341c5f",
            "currentTimestamp" : "0x03e8"
        },
        "post" : {
            "Cancun" : [
                {
                    "hash" : "0x795d867fe65cfea36ba18acb5ee1bbeb8035b244fce7476c65cbf74fdeb50c2b",
                    "indexes" : {
                        "data" : 0,
                        "gas" : 0,
                        "value" : 0
                    },
                    "logs" : "0x1dcc4de8dec75d7aab85b567b6ccd41ad312451b948a7413f0a142fd40d49347",
                    "txbytes" : "0xf880800a830927c094100000000000000000000000000000000000000080a0000000000000000000000000b94f5374fce5edbc8e2a8697c15331677e6ebf0b1ca0ae9873d3009d7ae8de25731167578dc9529ee0b9b426804e9ab97fcfb99b0ff1a01cdd876e136c164ba4d985f32a62c8c3e5778e91bca1718c3f75d05d491dc556"
                },
                {
                    "hash" : "0x1252fbf9f72814864cb56ed9cb0f2a3ab2d5fa8d63448d41f6f44207647c4d0d",
                    "indexes" : {
                        "data" : 1,
                        "gas" : 0,
                        "value" : 0
                    },
                    "logs" : "0x1dcc4de8dec75d7aab85b567b6ccd41ad312451b948a7413f0a142fd40d49347",
                    "txbytes" : "0xf880800a830927c094100000000000000000000000000000000000000080a0000000000000000000000000c94f5374fce5edbc8e2a8697c15331677e6ebf0b1ba0fc63c034eab0c1d958cdf3ce0b184808d3d0b90501f2de7a93d5b711612ec63aa07d5fd5679516a5c0c7a275a26680211315916a6d9b0a6ca1e9c68fc1ecdfe7d3"
                }
            ],
            "Prague" : [
                {
                    "hash" : "0x795d867fe65cfea36ba18acb5ee1bbeb8035b244fce7476c65cbf74fdeb50c2b",
                    "indexes" : {
                        "data" : 0,
                        "gas" : 0,
                        "value" : 0
                    },
                    "logs" : "0x1dcc4de8dec75d7aab85b567b6ccd41ad312451b948a7413f0a142fd40d49347",
                    "txbytes" : "0xf880800a830927c094100000000000000000000000000000000000000080a0000000000000000000000000b94f5374fce5edbc8e2a8697c15331677e6ebf0b1ca0ae9873d3009d7ae8de25731167578dc9529ee0b9b426804e9ab97fcfb99b0ff1a01cdd876e136c164ba4d985f32a62c8c3e5778e91bca1718c3f75d05d491dc556"
                },
                {
                    "hash" : "0x1252fbf9f72814864cb56ed9cb0f2a3ab2d5fa8d63448d41f6f44207647c4d0d",
                    "indexes" : {
                        "data" : 1,
                        "gas" : 0,
                        "value" : 0
                    },
                    "logs" : "0x1dcc4de8dec75d7aab85b567b6ccd41ad312451b948a7413f0a142fd40d49347",
                    "txbytes" : "0xf880800a830927c094100000000000000000000000000000000000000080a0000000000000000000000000c94f5374fce5edbc8e2a8697c15331677e6ebf0b1ba0fc63c034eab0c1d958cdf3ce0b184808d3d0b90501f2de7a93d5b711612ec63aa07d5fd5679516a5c0c7a275a26680211315916a6d9b0a6ca1e9c68fc1ecdfe7d3"
                }
            ]
        },
        "pre" : {
            "0x1000000000000000000000000000000000000000" : {
                "balance" : "0x00",
                "code" : "0x6000600060006000346000355af1600055600160015500",
                "nonce" : "0x00",
                "storage" : {
                }
            },
            "0x1000000000000000000000000000000000000103" : {
                "balance" : "0x00",
                "code" : "0x601260005500",
                "nonce" : "0x00",
                "storage" : {
                }
            },
            "0x2000000000000000000000000000000000000103" : {
                "balance" : "0x00",
                "code" : "0x601260005200",
                "nonce" : "0x00",
                "storage" : {
                }
            },
            "0xa94f5374fce5edbc8e2a8697c15331677e6ebf0b" : {
                "balance" : "0xe8d4a51000",
                "code" : "0x",
                "nonce" : "0x00",
                "storage" : {
                }
            },
            "0xb94f5374fce5edbc8e2a8697c15331677e6ebf0b" : {
                "balance" : "0x00",
                "code" : "0x6000600060006000731000000000000000000000000000000000000103620927c0fa60095560006000600060006000731000000000000000000000000000000000000103620927c0f2600a5500",
                "nonce" : "0x00",
                "storage" : {
                }
            },
            "0xc94f5374fce5edbc8e2a8697c15331677e6ebf0b" : {
                "balance" : "0x00",
                "code" : "0x6000600060006000732000000000000000000000000000000000000103620927c0fa60095560006000600060006000731000000000000000000000000000000000000103620927c0f2600a5500",
                "nonce" : "0x00",
                "storage" : {
                }
            }
        },
        "transaction" : {
            "data" : [
                "0x000000000000000000000000b94f5374fce5edbc8e2a8697c15331677e6ebf0b",
                "0x000000000000000000000000c94f5374fce5edbc8e2a8697c15331677e6ebf0b"
            ],
            "gasLimit" : [
                "0x0927c0"
            ],
            "gasPrice" : "0x0a",
            "nonce" : "0x00",
            "secretKey" : "0x45a915e4d060149eb4365960e6a7a45f334393093061116b197e3240065ff2d8",
            "sender" : "0xa94f5374fce5edbc8e2a8697c15331677e6ebf0b",
            "to" : "0x1000000000000000000000000000000000000000",
            "value" : [
                "0x00"
            ]
        }
    }
}