{
    "static_CallContractToCreateContractAndCallItOOG" : {
        "_info" : {
            "comment" : "",
            "filling-rpc-server" : "evmone-t8n 0.13.0-31+commit.37e2cffb",
            "filling-tool-version" : "retesteth-0.3.2-legacy+commit.c446cb9e.Linux.g++",
            "generatedTestHash" : "84794c2e49858642c9c06a80efad23641441c99e1142523e37446695378c4dc5",
            "lllcversion" : "Version: 0.5.14-develop.2024.11.5+commit.b2b86751.mod.Linux.g++",
            "solidity" : "Version: 0.8.24+commit.e11b9ed9.Linux.g++",
            "source" : "src/GeneralStateTestsFiller/stStaticCall/static_CallContractToCreateContractAndCallItOOGFiller.json",
            "sourceHash" : "1a53cb4873d451d49fb6a27cd9b66d87bbe1aefa4991502d519d966933ad598e"
        },
        "env" : {
            "currentBaseFee" : "0x0a",
            "currentCoinbase" : "0x2adc25665018aa1fe0e6bc666dac8fc2697ff9ba",
            "currentDifficulty" : "0x020000",
            "currentExcessBlobGas" : "0x00",
            "currentGasLimit" : "0x05f5e100",
            "currentNumber" : "0x01",
            "currentRandom" : "0x0000000000000000000000000000000000000000000000000000000000020000",
            "currentRequestsHash" : "0x6036c41849da9c076ed79654d434017387a88fb833c2856b32e18218b3341c5f",
            "currentTimestamp" : "0x03e8"
        },
        "post" : {
            "Cancun" : [
                {
                    "hash" : "0x444897ff68399f4a6881b3640a6bbd00ea69e453a8d65d44a7eee5249532ae50",
                    "indexes" : {
                        "data" : 1,
                        "gas" : 0,
                        "value" : 0
                    },
                    "logs" : "0x1dcc4de8dec75d7aab85b567b6ccd41ad312451b948a7413f0a142fd40d49347",
                    "txbytes" : "0xf860800a831e848094095e7baea6a6c7c4c2dfeb977efac326af552d8780011ba01d35ebc28eea412cc5f51a5e0af347596f089556e344a71e72870219819401f1a038a6623e736915a310ceaff80583125e561bb254e4abbbfcb8e5127701cbb273"
                },
                {
                    "hash" : "0x4684f2af4b428f2af7f0a511424fe51e66382d640c00128907a4df69e78896ea",
                    "indexes" : {
                        "data" : 0,
                        "gas" : 0,
                        "value" : 0
                    },
                    "logs" : "0x1dcc4de8dec75d7aab85b567b6ccd41ad312451b948a7413f0a142fd40d49347",
                    "txbytes" : "0xf860800a831e848094095e7baea6a6c7c4c2dfeb977efac326af552d8780001ca0b88e51b17644102b6b3a4b852aca9a7431fcbb9f842d8c8e1694a4b1a0a5813ca06040d5dab054f24ca4820829578938719db02c2b5c06fcb5450da66cfd14f332"
                }
            ],
            "Prague" : [
                {
                    "hash" : "0x444897ff68399f4a6881b3640a6bbd00ea69e453a8d65d44a7eee5249532ae50",
                    "indexes" : {
                        "data" : 1,
                        "gas" : 0,
                        "value" : 0
                    },
                    "logs" : "0x1dcc4de8dec75d7aab85b567b6ccd41ad312451b948a7413f0a142fd40d49347",
                    "txbytes" : "0xf860800a831e848094095e7baea6a6c7c4c2dfeb977efac326af552d8780011ba01d35ebc28eea412cc5f51a5e0af347596f089556e344a71e72870219819401f1a038a6623e736915a310ceaff80583125e561bb254e4abbbfcb8e5127701cbb273"
                },
                {
                    "hash" : "0x4684f2af4b428f2af7f0a511424fe51e66382d640c00128907a4df69e78896ea",
                    "indexes" : {
                        "data" : 0,
                        "gas" : 0,
                        "value" : 0
                    },
                    "logs" : "0x1dcc4de8dec75d7aab85b567b6ccd41ad312451b948a7413f0a142fd40d49347",
                    "txbytes" : "0xf860800a831e848094095e7baea6a6c7c4c2dfeb977efac326af552d8780001ca0b88e51b17644102b6b3a4b852aca9a7431fcbb9f842d8c8e1694a4b1a0a5813ca06040d5dab054f24ca4820829578938719db02c2b5c06fcb5450da66cfd14f332"
                }
            ]
        },
        "pre" : {
            "0x095e7baea6a6c7c4c2dfeb977efac326af552d87" : {
                "balance" : "0x03e8",
                "code" : "0x74600c60005566602060406000f060205260076039f36000526015600b6001f060005560006000600060006000546103e8fa506000600035146040575a6048565b622fffff6000205b00",
                "nonce" : "0x00",
                "storage" : {
                }
            },
            "0xa94f5374fce5edbc8e2a8697c15331677e6ebf0b" : {
                "balance" : "0x05f5e100",
                "code" : "0x",
                "nonce" : "0x00",
                "storage" : {
                }
            }
        },
        "transaction" : {
            "data" : [
                "0x00",
                "0x01"
            ],
            "gasLimit" : [
                "0x1e8480"
            ],
            "gasPrice" : "0x0a",
            "nonce" : "0x00",
            "secretKey" : "0x45a915e4d060149eb4365960e6a7a45f334393093061116b197e3240065ff2d8",
            "sender" : "0xa94f5374fce5edbc8e2a8697c15331677e6ebf0b",
            "to" : "0x095e7baea6a6c7c4c2dfeb977efac326af552d87",
            "value" : [
                "0x00"
            ]
        }
    }
}