{
    "RevertOnEmptyStack" : {
        "_info" : {
            "comment" : "Calling a runtime code that contains only a single `REVERT` should consume all gas.",
            "filling-rpc-server" : "evmone-t8n 0.13.0-31+commit.37e2cffb",
            "filling-tool-version" : "retesteth-0.3.2-legacy+commit.c446cb9e.Linux.g++",
            "generatedTestHash" : "20282e32cf972989c5ec32fd0b3b8e57eb2d8d5089b8a63a4e12d12b80992dd5",
            "lllcversion" : "Version: 0.5.14-develop.2024.11.5+commit.b2b86751.mod.Linux.g++",
            "solidity" : "Version: 0.8.24+commit.e11b9ed9.Linux.g++",
            "source" : "src/GeneralStateTestsFiller/stRevertTest/RevertOnEmptyStackFiller.json",
            "sourceHash" : "4096174f4eab9fd1f01186e16cfd9e9eb4f07fd54e2910ce6a375382ace58ac9"
        },
        "env" : {
            "currentBaseFee" : "0x0a",
            "currentCoinbase" : "0x2adc25665018aa1fe0e6bc666dac8fc2697ff9ba",
            "currentDifficulty" : "0x020000",
            "currentExcessBlobGas" : "0x00",
            "currentGasLimit" : "0x989680",
            "currentNumber" : "0x01",
            "currentRandom" : "0x0000000000000000000000000000000000000000000000000000000000020000",
            "currentRequestsHash" : "0x6036c41849da9c076ed79654d434017387a88fb833c2856b32e18218b3341c5f",
            "currentTimestamp" : "0x03e8"
        },
        "post" : {
            "Cancun" : [
                {
                    "hash" : "0x8cba86fee6e7d957ba84186490e12a0259007798a49479aca61fc85374c163ad",
                    "indexes" : {
                        "data" : 0,
                        "gas" : 0,
                        "value" : 0
                    },
                    "logs" : "0x1dcc4de8dec75d7aab85b567b6ccd41ad312451b948a7413f0a142fd40d49347",
                    "txbytes" : "0xf860800a831e848094a00000000000000000000000000000000000000080801ba0d2930ecbb7ac6800dc8327166abee7e583a849b5227924da23c21fdef394b9d2a0746757ad43c4a34031ebf7186c40781e418f5da69a149f9183fd561618ccbe79"
                }
            ],
            "Prague" : [
                {
                    "hash" : "0x8cba86fee6e7d957ba84186490e12a0259007798a49479aca61fc85374c163ad",
                    "indexes" : {
                        "data" : 0,
                        "gas" : 0,
                        "value" : 0
                    },
                    "logs" : "0x1dcc4de8dec75d7aab85b567b6ccd41ad312451b948a7413f0a142fd40d49347",
                    "txbytes" : "0xf860800a831e848094a00000000000000000000000000000000000000080801ba0d2930ecbb7ac6800dc8327166abee7e583a849b5227924da23c21fdef394b9d2a0746757ad43c4a34031ebf7186c40781e418f5da69a149f9183fd561618ccbe79"
                }
            ]
        },
        "pre" : {
            "0xa000000000000000000000000000000000000000" : {
                "balance" : "0x00",
                "code" : "0xfd",
                "nonce" : "0x00",
                "storage" : {
                }
            },
            "0xa94f5374fce5edbc8e2a8697c15331677e6ebf0b" : {
                "balance" : "0x5af3107a4000",
                "code" : "0x",
                "nonce" : "0x00",
                "storage" : {
                }
            }
        },
        "transaction" : {
            "data" : [
                "0x"
            ],
            "gasLimit" : [
                "0x1e8480"
            ],
            "gasPrice" : "0x0a",
            "nonce" : "0x00",
            "secretKey" : "0x45a915e4d060149eb4365960e6a7a45f334393093061116b197e3240065ff2d8",
            "sender" : "0xa94f5374fce5edbc8e2a8697c15331677e6ebf0b",
            "to" : "0xa000000000000000000000000000000000000000",
            "value" : [
                "0x00"
            ]
        }
    }
}