{
    "RevertOpcodeInCreateReturns" : {
        "_info" : {
            "comment" : "",
            "filling-rpc-server" : "evmone-t8n 0.13.0-31+commit.37e2cffb",
            "filling-tool-version" : "retesteth-0.3.2-legacy+commit.c446cb9e.Linux.g++",
            "generatedTestHash" : "c365a72c69eb6560bb56d1272130c4c35752db26849312518762e68272c7fbf1",
            "lllcversion" : "Version: 0.5.14-develop.2024.11.5+commit.b2b86751.mod.Linux.g++",
            "solidity" : "Version: 0.8.24+commit.e11b9ed9.Linux.g++",
            "source" : "src/GeneralStateTestsFiller/stRevertTest/RevertOpcodeInCreateReturnsFiller.json",
            "sourceHash" : "b05ed81846d2874164673f3db0a3e976c3d0f668ea598fffb6db1b99f1706a34"
        },
        "env" : {
            "currentBaseFee" : "0x0a",
            "currentCoinbase" : "0x2adc25665018aa1fe0e6bc666dac8fc2697ff9ba",
            "currentDifficulty" : "0x020000",
            "currentExcessBlobGas" : "0x00",
            "currentGasLimit" : "0x0a00000000",
            "currentNumber" : "0x01",
            "currentRandom" : "0x0000000000000000000000000000000000000000000000000000000000020000",
            "currentRequestsHash" : "0x6036c41849da9c076ed79654d434017387a88fb833c2856b32e18218b3341c5f",
            "currentTimestamp" : "0x03e8"
        },
        "post" : {
            "Cancun" : [
                {
                    "hash" : "0xf165a1eb41413abdcab8961381e8e1ae9d37816e502bf8099113bb6c3a7885f7",
                    "indexes" : {
                        "data" : 0,
                        "gas" : 0,
                        "value" : 0
                    },
                    "logs" : "0x1dcc4de8dec75d7aab85b567b6ccd41ad312451b948a7413f0a142fd40d49347",
                    "txbytes" : "0xf862800a8509fd800001940f572e5295c57f15886f9b263e2f6d2d6c7b5ec680801ba078e7cc7b77552daa0be34dd58a7080c1983e5e823be2a7ab81835fb66713ed43a06bb82c39a8177bd5bf769840ad5778d53a03042a8273a9825c04a0ec6bc56fbc"
                }
            ],
            "Prague" : [
                {
                    "hash" : "0xf165a1eb41413abdcab8961381e8e1ae9d37816e502bf8099113bb6c3a7885f7",
                    "indexes" : {
                        "data" : 0,
                        "gas" : 0,
                        "value" : 0
                    },
                    "logs" : "0x1dcc4de8dec75d7aab85b567b6ccd41ad312451b948a7413f0a142fd40d49347",
                    "txbytes" : "0xf862800a8509fd800001940f572e5295c57f15886f9b263e2f6d2d6c7b5ec680801ba078e7cc7b77552daa0be34dd58a7080c1983e5e823be2a7ab81835fb66713ed43a06bb82c39a8177bd5bf769840ad5778d53a03042a8273a9825c04a0ec6bc56fbc"
                }
            ]
        },
        "pre" : {
            "0x0f572e5295c57f15886f9b263e2f6d2d6c7b5ec6" : {
                "balance" : "0x00",
                "code" : "0x600d80601560003960006000f0503d6000550000fe6211223360005260206000fd00",
                "nonce" : "0x00",
                "storage" : {
                    "0x00" : "0x01"
                }
            },
            "0xa94f5374fce5edbc8e2a8697c15331677e6ebf0b" : {
                "balance" : "0x6400000000",
                "code" : "0x",
                "nonce" : "0x00",
                "storage" : {
                }
            }
        },
        "transaction" : {
            "data" : [
                "0x"
            ],
            "gasLimit" : [
                "0x09fd800001"
            ],
            "gasPrice" : "0x0a",
            "nonce" : "0x00",
            "secretKey" : "0x45a915e4d060149eb4365960e6a7a45f334393093061116b197e3240065ff2d8",
            "sender" : "0xa94f5374fce5edbc8e2a8697c15331677e6ebf0b",
            "to" : "0x0f572e5295c57f15886f9b263e2f6d2d6c7b5ec6",
            "value" : [
                "0x00"
            ]
        }
    }
}