{
    "ExecuteCallThatAskMoreGasThenTransactionHasWithMemExpandingCalls" : {
        "_info" : {
            "comment" : "",
            "filling-rpc-server" : "evmone-t8n 0.13.0-31+commit.37e2cffb",
            "filling-tool-version" : "retesteth-0.3.2-legacy+commit.c446cb9e.Linux.g++",
            "generatedTestHash" : "1ecf9478f3cfccb6c0592b5905f35abc19169f3189bb2b29a9340a56de93194f",
            "lllcversion" : "Version: 0.5.14-develop.2024.11.5+commit.b2b86751.mod.Linux.g++",
            "solidity" : "Version: 0.8.24+commit.e11b9ed9.Linux.g++",
            "source" : "src/GeneralStateTestsFiller/stMemExpandingEIP150Calls/ExecuteCallThatAskMoreGasThenTransactionHasWithMemExpandingCallsFiller.json",
            "sourceHash" : "7f535d0c8f2f5c8b9b24110777af683022dd0982c31f783b0ca8307ed9aecc0c"
        },
        "env" : {
            "currentBaseFee" : "0x0a",
            "currentCoinbase" : "0x2adc25665018aa1fe0e6bc666dac8fc2697ff9ba",
            "currentDifficulty" : "0x020000",
            "currentExcessBlobGas" : "0x00",
            "currentGasLimit" : "0x989680",
            "currentNumber" : "0x01",
            "currentRandom" : "0x0000000000000000000000000000000000000000000000000000000000020000",
            "currentRequestsHash" : "0x6036c41849da9c076ed79654d434017387a88fb833c2856b32e18218b3341c5f",
            "currentTimestamp" : "0x03e8"
        },
        "post" : {
            "Cancun" : [
                {
                    "hash" : "0xfc096b52ae90991d54c7332aab7bf837a5f77e5dd0d21274e3e75c1876d6da91",
                    "indexes" : {
                        "data" : 0,
                        "gas" : 0,
                        "value" : 0
                    },
                    "logs" : "0x1dcc4de8dec75d7aab85b567b6ccd41ad312451b948a7413f0a142fd40d49347",
                    "txbytes" : "0xf860800a830186a094b94f5374fce5edbc8e2a8697c15331677e6ebf0b80801ca013e72da04d3a74fdc16979fdea1a319c45fcdcb22aed63dc8f7fc1851dde3640a05bc995d025196b6ef2ffc6777e831d18a86226f8759c5adb8dda36e4cc19d238"
                }
            ],
            "Prague" : [
                {
                    "hash" : "0xfc096b52ae90991d54c7332aab7bf837a5f77e5dd0d21274e3e75c1876d6da91",
                    "indexes" : {
                        "data" : 0,
                        "gas" : 0,
                        "value" : 0
                    },
                    "logs" : "0x1dcc4de8dec75d7aab85b567b6ccd41ad312451b948a7413f0a142fd40d49347",
                    "txbytes" : "0xf860800a830186a094b94f5374fce5edbc8e2a8697c15331677e6ebf0b80801ca013e72da04d3a74fdc16979fdea1a319c45fcdcb22aed63dc8f7fc1851dde3640a05bc995d025196b6ef2ffc6777e831d18a86226f8759c5adb8dda36e4cc19d238"
                }
            ]
        },
        "pre" : {
            "0x1000000000000000000000000000000000000001" : {
                "balance" : "0x0186a0",
                "code" : "0x600c600155",
                "nonce" : "0x00",
                "storage" : {
                }
            },
            "0xa94f5374fce5edbc8e2a8697c15331677e6ebf0b" : {
                "balance" : "0x0186a000",
                "code" : "0x",
                "nonce" : "0x00",
                "storage" : {
                }
            },
            "0xb94f5374fce5edbc8e2a8697c15331677e6ebf0b" : {
                "balance" : "0x00",
                "code" : "0x60ff60ff60ff60ff6000731000000000000000000000000000000000000001620927c0f1600155",
                "nonce" : "0x00",
                "storage" : {
                }
            }
        },
        "transaction" : {
            "data" : [
                "0x"
            ],
            "gasLimit" : [
                "0x0186a0"
            ],
            "gasPrice" : "0x0a",
            "nonce" : "0x00",
            "secretKey" : "0x45a915e4d060149eb4365960e6a7a45f334393093061116b197e3240065ff2d8",
            "sender" : "0xa94f5374fce5edbc8e2a8697c15331677e6ebf0b",
            "to" : "0xb94f5374fce5edbc8e2a8697c15331677e6ebf0b",
            "value" : [
                "0x00"
            ]
        }
    }
}