{
    "manualCreate" : {
        "_info" : {
            "comment" : "Ori Pomerantz qbzzt1@gmail.com",
            "filling-rpc-server" : "evmone-t8n 0.13.0-31+commit.37e2cffb",
            "filling-tool-version" : "retesteth-0.3.2-legacy+commit.c446cb9e.Linux.g++",
            "generatedTestHash" : "0c16cacad2140c2fd14705153cfcee68d43d9d0fe63579959ce31bec9f268422",
            "labels" : {
                "0" : "allBad",
                "1" : "addrGoodCellBad",
                "2" : "allGood"
            },
            "lllcversion" : "Version: 0.5.14-develop.2024.11.5+commit.b2b86751.mod.Linux.g++",
            "solidity" : "Version: 0.8.24+commit.e11b9ed9.Linux.g++",
            "source" : "src/GeneralStateTestsFiller/stEIP2930/manualCreateFiller.yml",
            "sourceHash" : "c17d0c48450b753b47fcf723b2a239e0cc25e738710d519676f7c50800ea4cbb"
        },
        "env" : {
            "currentBaseFee" : "0x0a",
            "currentCoinbase" : "0x2adc25665018aa1fe0e6bc666dac8fc2697ff9ba",
            "currentDifficulty" : "0x020000",
            "currentExcessBlobGas" : "0x00",
            "currentGasLimit" : "0xff112233445566",
            "currentNumber" : "0x01",
            "currentRandom" : "0x0000000000000000000000000000000000000000000000000000000000020000",
            "currentRequestsHash" : "0x6036c41849da9c076ed79654d434017387a88fb833c2856b32e18218b3341c5f",
            "currentTimestamp" : "0x03e8"
        },
        "post" : {
            "Cancun" : [
                {
                    "hash" : "0x660459aa7b5dacffd545592d05291ba6fb861a7bde26c654698cf9ec2864872a",
                    "indexes" : {
                        "data" : 2,
                        "gas" : 0,
                        "value" : 0
                    },
                    "logs" : "0x1dcc4de8dec75d7aab85b567b6ccd41ad312451b948a7413f0a142fd40d49347",
                    "txbytes" : "0x01f89e01010a83061a808080975a3031505a90036001555a60ff6000555a900360005500f838f794ec0e71ad0a90ffe1909d27dac207f7680abba42de1a0000000000000000000000000000000000000000000000000000000000000000080a0624806136601d18806233d5ec831f6926ff892c3fbdd32b0a0a694501036127da0638a01db82a445461cf2ab4b2876ffbcd55ab145c93efff82fbfcff0ec59fa25"
                },
                {
                    "hash" : "0x50b43fdcde72c62c1015c8849758abcfe5fc0e4ac7b8920d25b4f8bca7fba476",
                    "indexes" : {
                        "data" : 0,
                        "gas" : 0,
                        "value" : 0
                    },
                    "logs" : "0x1dcc4de8dec75d7aab85b567b6ccd41ad312451b948a7413f0a142fd40d49347",
                    "txbytes" : "0x01f89e01010a83061a808080975a3031505a90036001555a60ff6000555a900360005500f838f7940000000000000000000000000000000000000100e1a0000000000000000000000000000000000000000000000000000000000000000001a00454375860ec988e662d2e850993d5911bea5eed19e337485582473bc6b25762a0567e77442152378e8dc3ecf3c604ddd173b379e9b90e66c58fc520452c352746"
                },
                {
                    "hash" : "0x22ee78ebdbe6330440897546562e8df3482622fd1094d7a3004625bf0fe8928b",
                    "indexes" : {
                        "data" : 1,
                        "gas" : 0,
                        "value" : 0
                    },
                    "logs" : "0x1dcc4de8dec75d7aab85b567b6ccd41ad312451b948a7413f0a142fd40d49347",
                    "txbytes" : "0x01f89e01010a83061a808080975a3031505a90036001555a60ff6000555a900360005500f838f794ec0e71ad0a90ffe1909d27dac207f7680abba42de1a0000000000000000000000000000000000000000000000000000000000000000101a001ca31f0900d1cff85308441b91a2bb77f60f92c9aa41f08b84d121ede10498ba06ea1c97852769a04d15498188ed4467ee6773dc06e1067d95b18d9c6e264be6c"
                }
            ],
            "Prague" : [
                {
                    "hash" : "0x660459aa7b5dacffd545592d05291ba6fb861a7bde26c654698cf9ec2864872a",
                    "indexes" : {
                        "data" : 2,
                        "gas" : 0,
                        "value" : 0
                    },
                    "logs" : "0x1dcc4de8dec75d7aab85b567b6ccd41ad312451b948a7413f0a142fd40d49347",
                    "txbytes" : "0x01f89e01010a83061a808080975a3031505a90036001555a60ff6000555a900360005500f838f794ec0e71ad0a90ffe1909d27dac207f7680abba42de1a0000000000000000000000000000000000000000000000000000000000000000080a0624806136601d18806233d5ec831f6926ff892c3fbdd32b0a0a694501036127da0638a01db82a445461cf2ab4b2876ffbcd55ab145c93efff82fbfcff0ec59fa25"
                },
                {
                    "hash" : "0x50b43fdcde72c62c1015c8849758abcfe5fc0e4ac7b8920d25b4f8bca7fba476",
                    "indexes" : {
                        "data" : 0,
                        "gas" : 0,
                        "value" : 0
                    },
                    "logs" : "0x1dcc4de8dec75d7aab85b567b6ccd41ad312451b948a7413f0a142fd40d49347",
                    "txbytes" : "0x01f89e01010a83061a808080975a3031505a90036001555a60ff6000555a900360005500f838f7940000000000000000000000000000000000000100e1a0000000000000000000000000000000000000000000000000000000000000000001a00454375860ec988e662d2e850993d5911bea5eed19e337485582473bc6b25762a0567e77442152378e8dc3ecf3c604ddd173b379e9b90e66c58fc520452c352746"
                },
                {
                    "hash" : "0x22ee78ebdbe6330440897546562e8df3482622fd1094d7a3004625bf0fe8928b",
                    "indexes" : {
                        "data" : 1,
                        "gas" : 0,
                        "value" : 0
                    },
                    "logs" : "0x1dcc4de8dec75d7aab85b567b6ccd41ad312451b948a7413f0a142fd40d49347",
                    "txbytes" : "0x01f89e01010a83061a808080975a3031505a90036001555a60ff6000555a900360005500f838f794ec0e71ad0a90ffe1909d27dac207f7680abba42de1a0000000000000000000000000000000000000000000000000000000000000000101a001ca31f0900d1cff85308441b91a2bb77f60f92c9aa41f08b84d121ede10498ba06ea1c97852769a04d15498188ed4467ee6773dc06e1067d95b18d9c6e264be6c"
                }
            ]
        },
        "pre" : {
            "0xa94f5374fce5edbc8e2a8697c15331677e6ebf0b" : {
                "balance" : "0x01000000000000000000",
                "code" : "0x",
                "nonce" : "0x01",
                "storage" : {
                }
            }
        },
        "transaction" : {
            "accessLists" : [
                [
                    {
                        "address" : "0x0000000000000000000000000000000000000100",
                        "storageKeys" : [
                            "0x0000000000000000000000000000000000000000000000000000000000000000"
                        ]
                    }
                ],
                [
                    {
                        "address" : "0xec0e71ad0a90ffe1909d27dac207f7680abba42d",
                        "storageKeys" : [
                            "0x0000000000000000000000000000000000000000000000000000000000000001"
                        ]
                    }
                ],
                [
                    {
                        "address" : "0xec0e71ad0a90ffe1909d27dac207f7680abba42d",
                        "storageKeys" : [
                            "0x0000000000000000000000000000000000000000000000000000000000000000"
                        ]
                    }
                ]
            ],
            "data" : [
                "0x5a3031505a90036001555a60ff6000555a900360005500",
                "0x5a3031505a90036001555a60ff6000555a900360005500",
                "0x5a3031505a90036001555a60ff6000555a900360005500"
            ],
            "gasLimit" : [
                "0x061a80"
            ],
            "gasPrice" : "0x0a",
            "nonce" : "0x01",
            "secretKey" : "0x45a915e4d060149eb4365960e6a7a45f334393093061116b197e3240065ff2d8",
            "sender" : "0xa94f5374fce5edbc8e2a8697c15331677e6ebf0b",
            "to" : "",
            "value" : [
                "0x00"
            ]
        }
    }
}