{
    "randomStatetest281" : {
        "_info" : {
            "comment" : "",
            "filling-rpc-server" : "evmone-t8n 0.13.0-31+commit.37e2cffb",
            "filling-tool-version" : "retesteth-0.3.2-legacy+commit.c446cb9e.Linux.g++",
            "generatedTestHash" : "5afa95fb1aaafc6ef86a22dcfa6c9834e77b7bb15d123b0a7669606fc4dc98a2",
            "lllcversion" : "Version: 0.5.14-develop.2024.11.5+commit.b2b86751.mod.Linux.g++",
            "solidity" : "Version: 0.8.24+commit.e11b9ed9.Linux.g++",
            "source" : "src/GeneralStateTestsFiller/stRandom/randomStatetest281Filler.json",
            "sourceHash" : "e42253ec4ddf63acb2df3278349ec2e421423c2b7691d716ea8461c95942fea2"
        },
        "env" : {
            "currentBaseFee" : "0x0a",
            "currentCoinbase" : "0x945304eb96065b2a98b57a48a06ae28d285a71b5",
            "currentDifficulty" : "0x020000",
            "currentExcessBlobGas" : "0x00",
            "currentGasLimit" : "0x7fffffffffffffff",
            "currentNumber" : "0x01",
            "currentRandom" : "0x0000000000000000000000000000000000000000000000000000000000020000",
            "currentRequestsHash" : "0x6036c41849da9c076ed79654d434017387a88fb833c2856b32e18218b3341c5f",
            "currentTimestamp" : "0x03e8"
        },
        "post" : {
            "Cancun" : [
                {
                    "hash" : "0x9c2ff3c3c278752a068882c057fdf6767e6da2ad6386ece508a7cf206a5e0dd5",
                    "indexes" : {
                        "data" : 0,
                        "gas" : 0,
                        "value" : 0
                    },
                    "logs" : "0x1dcc4de8dec75d7aab85b567b6ccd41ad312451b948a7413f0a142fd40d49347",
                    "txbytes" : "0xf8fd800a840f3fa3a994095e7baea6a6c7c4c2dfeb977efac326af552d8784662e647cb8977f000000000000000000000000945304eb96065b2a98b57a48a06ae28d285a71b57f000000000000000000000000945304eb96065b2a98b57a48a06ae28d285a71b5457f000000000000000000000000000000000000000000000000000000000000c350417f00000000000000000000000000000000000000000000000000000000000000016f649a7a3457645670a27fa170639718a21ca0bd52cf19d3424664b2aaa1628a4935c86012761fc33586483990215749dec0a3a07c09ff0a3e0ace3f1307990a0c6603ee79c270fa94478d0be2b6d8ff7afda6fa"
                }
            ],
            "Prague" : [
                {
                    "hash" : "0x9c2ff3c3c278752a068882c057fdf6767e6da2ad6386ece508a7cf206a5e0dd5",
                    "indexes" : {
                        "data" : 0,
                        "gas" : 0,
                        "value" : 0
                    },
                    "logs" : "0x1dcc4de8dec75d7aab85b567b6ccd41ad312451b948a7413f0a142fd40d49347",
                    "txbytes" : "0xf8fd800a840f3fa3a994095e7baea6a6c7c4c2dfeb977efac326af552d8784662e647cb8977f000000000000000000000000945304eb96065b2a98b57a48a06ae28d285a71b57f000000000000000000000000945304eb96065b2a98b57a48a06ae28d285a71b5457f000000000000000000000000000000000000000000000000000000000000c350417f00000000000000000000000000000000000000000000000000000000000000016f649a7a3457645670a27fa170639718a21ca0bd52cf19d3424664b2aaa1628a4935c86012761fc33586483990215749dec0a3a07c09ff0a3e0ace3f1307990a0c6603ee79c270fa94478d0be2b6d8ff7afda6fa"
                }
            ]
        },
        "pre" : {
            "0x095e7baea6a6c7c4c2dfeb977efac326af552d87" : {
                "balance" : "0x00",
                "code" : "0x7f000000000000000000000000945304eb96065b2a98b57a48a06ae28d285a71b57f000000000000000000000000945304eb96065b2a98b57a48a06ae28d285a71b5457f000000000000000000000000000000000000000000000000000000000000c350417f00000000000000000000000000000000000000000000000000000000000000016f649a7a3457645670a27fa170639718a260005155",
                "nonce" : "0x00",
                "storage" : {
                }
            },
            "0x945304eb96065b2a98b57a48a06ae28d285a71b5" : {
                "balance" : "0x2e",
                "code" : "0x6000355415600957005b60203560003555",
                "nonce" : "0x00",
                "storage" : {
                }
            },
            "0xa94f5374fce5edbc8e2a8697c15331677e6ebf0b" : {
                "balance" : "0x0de0b6b3a7640000",
                "code" : "0x",
                "nonce" : "0x00",
                "storage" : {
                }
            }
        },
        "transaction" : {
            "data" : [
                "0x7f000000000000000000000000945304eb96065b2a98b57a48a06ae28d285a71b57f000000000000000000000000945304eb96065b2a98b57a48a06ae28d285a71b5457f000000000000000000000000000000000000000000000000000000000000c350417f00000000000000000000000000000000000000000000000000000000000000016f649a7a3457645670a27fa170639718a2"
            ],
            "gasLimit" : [
                "0x0f3fa3a9"
            ],
            "gasPrice" : "0x0a",
            "nonce" : "0x00",
            "secretKey" : "0x45a915e4d060149eb4365960e6a7a45f334393093061116b197e3240065ff2d8",
            "sender" : "0xa94f5374fce5edbc8e2a8697c15331677e6ebf0b",
            "to" : "0x095e7baea6a6c7c4c2dfeb977efac326af552d87",
            "value" : [
                "0x662e647c"
            ]
        }
    }
}