{
    "randomStatetest45" : {
        "_info" : {
            "comment" : "",
            "filling-rpc-server" : "evmone-t8n 0.13.0-31+commit.37e2cffb",
            "filling-tool-version" : "retesteth-0.3.2-legacy+commit.c446cb9e.Linux.g++",
            "generatedTestHash" : "b52151ebed354752d5482af507b1f0f353a3618649470d6124ce9fdd9961df25",
            "lllcversion" : "Version: 0.5.14-develop.2024.11.5+commit.b2b86751.mod.Linux.g++",
            "solidity" : "Version: 0.8.24+commit.e11b9ed9.Linux.g++",
            "source" : "src/GeneralStateTestsFiller/stRandom/randomStatetest45Filler.json",
            "sourceHash" : "65e1c7e59cf7ae7867ddf66b25b0c781492c81ecdb8848fc4943a338648da601"
        },
        "env" : {
            "currentBaseFee" : "0x0a",
            "currentCoinbase" : "0x945304eb96065b2a98b57a48a06ae28d285a71b5",
            "currentDifficulty" : "0x020000",
            "currentExcessBlobGas" : "0x00",
            "currentGasLimit" : "0x7fffffffffffffff",
            "currentNumber" : "0x01",
            "currentRandom" : "0x0000000000000000000000000000000000000000000000000000000000020000",
            "currentRequestsHash" : "0x6036c41849da9c076ed79654d434017387a88fb833c2856b32e18218b3341c5f",
            "currentTimestamp" : "0x03e8"
        },
        "post" : {
            "Cancun" : [
                {
                    "hash" : "0x8921aeb0eee70876c01e6f706f1204a38b4ed4b3e901be657498fadbddc7fa42",
                    "indexes" : {
                        "data" : 0,
                        "gas" : 0,
                        "value" : 0
                    },
                    "logs" : "0x1dcc4de8dec75d7aab85b567b6ccd41ad312451b948a7413f0a142fd40d49347",
                    "txbytes" : "0xf8f3800a8413f6aeec94095e7baea6a6c7c4c2dfeb977efac326af552d8784771cef12b88d7f000000000000000000000000945304eb96065b2a98b57a48a06ae28d285a71b5317fffffffffffffffffffffffffffffffffffffffffffffffffffffffffffffffff7f0000000000000000000000010000000000000000000000000000000000000000417ffffffffffffffffffffffffffffffffffffffffffffffffffffffffffffffffe43147256a313021ba08d2f9d85be4b3bf06c6f5cc016eb045a0cbe696b96b972b943c251b00588e035a03f7757989fd017fbf87b25209c169f70a49a27bea73663adadcf5bc17fef90ef"
                }
            ],
            "Prague" : [
                {
                    "hash" : "0x8921aeb0eee70876c01e6f706f1204a38b4ed4b3e901be657498fadbddc7fa42",
                    "indexes" : {
                        "data" : 0,
                        "gas" : 0,
                        "value" : 0
                    },
                    "logs" : "0x1dcc4de8dec75d7aab85b567b6ccd41ad312451b948a7413f0a142fd40d49347",
                    "txbytes" : "0xf8f3800a8413f6aeec94095e7baea6a6c7c4c2dfeb977efac326af552d8784771cef12b88d7f000000000000000000000000945304eb96065b2a98b57a48a06ae28d285a71b5317fffffffffffffffffffffffffffffffffffffffffffffffffffffffffffffffff7f0000000000000000000000010000000000000000000000000000000000000000417ffffffffffffffffffffffffffffffffffffffffffffffffffffffffffffffffe43147256a313021ba08d2f9d85be4b3bf06c6f5cc016eb045a0cbe696b96b972b943c251b00588e035a03f7757989fd017fbf87b25209c169f70a49a27bea73663adadcf5bc17fef90ef"
                }
            ]
        },
        "pre" : {
            "0x095e7baea6a6c7c4c2dfeb977efac326af552d87" : {
                "balance" : "0x00",
                "code" : "0x7f000000000000000000000000945304eb96065b2a98b57a48a06ae28d285a71b5317fffffffffffffffffffffffffffffffffffffffffffffffffffffffffffffffff7f0000000000000000000000010000000000000000000000000000000000000000417ffffffffffffffffffffffffffffffffffffffffffffffffffffffffffffffffe43147256a3130255",
                "nonce" : "0x00",
                "storage" : {
                }
            },
            "0x945304eb96065b2a98b57a48a06ae28d285a71b5" : {
                "balance" : "0x2e",
                "code" : "0x6000355415600957005b60203560003555",
                "nonce" : "0x00",
                "storage" : {
                }
            },
            "0xa94f5374fce5edbc8e2a8697c15331677e6ebf0b" : {
                "balance" : "0x0de0b6b3a7640000",
                "code" : "0x",
                "nonce" : "0x00",
                "storage" : {
                }
            }
        },
        "transaction" : {
            "data" : [
                "0x7f000000000000000000000000945304eb96065b2a98b57a48a06ae28d285a71b5317fffffffffffffffffffffffffffffffffffffffffffffffffffffffffffffffff7f0000000000000000000000010000000000000000000000000000000000000000417ffffffffffffffffffffffffffffffffffffffffffffffffffffffffffffffffe43147256a31302"
            ],
            "gasLimit" : [
                "0x13f6aeec"
            ],
            "gasPrice" : "0x0a",
            "nonce" : "0x00",
            "secretKey" : "0x45a915e4d060149eb4365960e6a7a45f334393093061116b197e3240065ff2d8",
            "sender" : "0xa94f5374fce5edbc8e2a8697c15331677e6ebf0b",
            "to" : "0x095e7baea6a6c7c4c2dfeb977efac326af552d87",
            "value" : [
                "0x771cef12"
            ]
        }
    }
}