{
    "create2InitCodeSizeLimit" : {
        "_info" : {
            "comment" : "",
            "filling-rpc-server" : "evmone-t8n 0.13.0-31+commit.37e2cffb",
            "filling-tool-version" : "retesteth-0.3.2-legacy+commit.c446cb9e.Linux.g++",
            "generatedTestHash" : "e2fc3ca7a0d17a9d93c63a97e35569a89ca7a9618973bbfcbef60284bfcde306",
            "labels" : {
                "0" : "valid",
                "1" : "invalid"
            },
            "lllcversion" : "Version: 0.5.14-develop.2024.11.5+commit.b2b86751.mod.Linux.g++",
            "solidity" : "Version: 0.8.24+commit.e11b9ed9.Linux.g++",
            "source" : "src/GeneralStateTestsFiller/Shanghai/stEIP3860-limitmeterinitcode/create2InitCodeSizeLimitFiller.yml",
            "sourceHash" : "90a9255e6b2caf8b23b059c7e96150f7888b6f16653706b1712fd2fd75f774fa"
        },
        "env" : {
            "currentBaseFee" : "0x0a",
            "currentCoinbase" : "0x2adc25665018aa1fe0e6bc666dac8fc2697ff9ba",
            "currentDifficulty" : "0x020000",
            "currentExcessBlobGas" : "0x00",
            "currentGasLimit" : "0x01312d00",
            "currentNumber" : "0x01",
            "currentRandom" : "0x0000000000000000000000000000000000000000000000000000000000020000",
            "currentRequestsHash" : "0x6036c41849da9c076ed79654d434017387a88fb833c2856b32e18218b3341c5f",
            "currentTimestamp" : "0x03e8"
        },
        "post" : {
            "Cancun" : [
                {
                    "hash" : "0x8af07b907563bff7ee42e1d13bf4272e511e2c8bab0f943c74e7506fc98e54f7",
                    "indexes" : {
                        "data" : 0,
                        "gas" : 0,
                        "value" : 0
                    },
                    "logs" : "0x1dcc4de8dec75d7aab85b567b6ccd41ad312451b948a7413f0a142fd40d49347",
                    "txbytes" : "0xf880800a83e4e1c094b94f5374fce5edbc8e2a8697c15331677e6ebf0b80a0000000000000000000000000000000000000000000000000000000000000c0001ba0110f52aeb16c3e91943160d2e89c416b06dc47c7484a882324c6d0d362a26cd0a0774c7a35a3503be3867e7bb56885a9056ab1b7e5bfad19b1b0a3550d49a89d6f"
                },
                {
                    "hash" : "0x100592ea220f75303e912b58ed1cfc2c791a5a0418642b2c996dafd10038cd7a",
                    "indexes" : {
                        "data" : 1,
                        "gas" : 0,
                        "value" : 0
                    },
                    "logs" : "0x1dcc4de8dec75d7aab85b567b6ccd41ad312451b948a7413f0a142fd40d49347",
                    "txbytes" : "0xf880800a83e4e1c094b94f5374fce5edbc8e2a8697c15331677e6ebf0b80a0000000000000000000000000000000000000000000000000000000000000c0011ca0fa5e0f7c53cba5169bd5b239b479ba8668cf69d8c06d24b00a585b995a1c2c67a056382ddd27880d6393b3f905dc75db8a0c30eeb1c9a8443ac53723ca4feba37c"
                }
            ],
            "Prague" : [
                {
                    "hash" : "0x8af07b907563bff7ee42e1d13bf4272e511e2c8bab0f943c74e7506fc98e54f7",
                    "indexes" : {
                        "data" : 0,
                        "gas" : 0,
                        "value" : 0
                    },
                    "logs" : "0x1dcc4de8dec75d7aab85b567b6ccd41ad312451b948a7413f0a142fd40d49347",
                    "txbytes" : "0xf880800a83e4e1c094b94f5374fce5edbc8e2a8697c15331677e6ebf0b80a0000000000000000000000000000000000000000000000000000000000000c0001ba0110f52aeb16c3e91943160d2e89c416b06dc47c7484a882324c6d0d362a26cd0a0774c7a35a3503be3867e7bb56885a9056ab1b7e5bfad19b1b0a3550d49a89d6f"
                },
                {
                    "hash" : "0x100592ea220f75303e912b58ed1cfc2c791a5a0418642b2c996dafd10038cd7a",
                    "indexes" : {
                        "data" : 1,
                        "gas" : 0,
                        "value" : 0
                    },
                    "logs" : "0x1dcc4de8dec75d7aab85b567b6ccd41ad312451b948a7413f0a142fd40d49347",
                    "txbytes" : "0xf880800a83e4e1c094b94f5374fce5edbc8e2a8697c15331677e6ebf0b80a0000000000000000000000000000000000000000000000000000000000000c0011ca0fa5e0f7c53cba5169bd5b239b479ba8668cf69d8c06d24b00a585b995a1c2c67a056382ddd27880d6393b3f905dc75db8a0c30eeb1c9a8443ac53723ca4feba37c"
                }
            ]
        },
        "pre" : {
            "0xa94f5374fce5edbc8e2a8697c15331677e6ebf0b" : {
                "balance" : "0x0bebc200",
                "code" : "0x",
                "nonce" : "0x00",
                "storage" : {
                }
            },
            "0xb94f5374fce5edbc8e2a8697c15331677e6ebf0b" : {
                "balance" : "0x00",
                "code" : "0x60003560005260008036818073c94f5374fce5edbc8e2a8697c15331677e6ebf0b62989680f16000556001805500",
                "nonce" : "0x00",
                "storage" : {
                }
            },
            "0xc94f5374fce5edbc8e2a8697c15331677e6ebf0b" : {
                "balance" : "0x00",
                "code" : "0x69600a80600080396000f360b01b60009081523563deadbeef5a91600080f5905a9003600a5560005500",
                "nonce" : "0x00",
                "storage" : {
                }
            }
        },
        "transaction" : {
            "data" : [
                "0x000000000000000000000000000000000000000000000000000000000000c000",
                "0x000000000000000000000000000000000000000000000000000000000000c001"
            ],
            "gasLimit" : [
                "0xe4e1c0"
            ],
            "gasPrice" : "0x0a",
            "nonce" : "0x00",
            "secretKey" : "0x45a915e4d060149eb4365960e6a7a45f334393093061116b197e3240065ff2d8",
            "sender" : "0xa94f5374fce5edbc8e2a8697c15331677e6ebf0b",
            "to" : "0xb94f5374fce5edbc8e2a8697c15331677e6ebf0b",
            "value" : [
                "0x00"
            ]
        }
    }
}