{
    "createInitCodeSizeLimit" : {
        "_info" : {
            "comment" : "",
            "filling-rpc-server" : "evmone-t8n 0.13.0-31+commit.37e2cffb",
            "filling-tool-version" : "retesteth-0.3.2-legacy+commit.c446cb9e.Linux.g++",
            "generatedTestHash" : "a6f001f709cac42ed5c99f59ff0a840cc2cae7e086948e9a2777c0f981326cfd",
            "labels" : {
                "0" : "valid",
                "1" : "invalid"
            },
            "lllcversion" : "Version: 0.5.14-develop.2024.11.5+commit.b2b86751.mod.Linux.g++",
            "solidity" : "Version: 0.8.24+commit.e11b9ed9.Linux.g++",
            "source" : "src/GeneralStateTestsFiller/Shanghai/stEIP3860-limitmeterinitcode/createInitCodeSizeLimitFiller.yml",
            "sourceHash" : "60491adb8a70f263af3464aba6926855ce69a02c95a69d22adfc07ddb987d819"
        },
        "env" : {
            "currentBaseFee" : "0x0a",
            "currentCoinbase" : "0x2adc25665018aa1fe0e6bc666dac8fc2697ff9ba",
            "currentDifficulty" : "0x020000",
            "currentExcessBlobGas" : "0x00",
            "currentGasLimit" : "0x01312d00",
            "currentNumber" : "0x01",
            "currentRandom" : "0x0000000000000000000000000000000000000000000000000000000000020000",
            "currentRequestsHash" : "0x6036c41849da9c076ed79654d434017387a88fb833c2856b32e18218b3341c5f",
            "currentTimestamp" : "0x03e8"
        },
        "post" : {
            "Cancun" : [
                {
                    "hash" : "0x814b422b4134b7f964e29a3ffb5a23cab1e0b4def6d323867123123d32a179e8",
                    "indexes" : {
                        "data" : 0,
                        "gas" : 0,
                        "value" : 0
                    },
                    "logs" : "0x1dcc4de8dec75d7aab85b567b6ccd41ad312451b948a7413f0a142fd40d49347",
                    "txbytes" : "0xf880010a83e4e1c094bbbbbbbbbbbbbbbbbbbbbbbbbbbbbbbbbbbbbbbb80a0000000000000000000000000000000000000000000000000000000000000c0001ca09c4a169aaa70e40d510a89157262c5a22b69aee3e9ad825b0b3ee27200a9bb01a052fe2384e2c813557c2f0c9cb274f5b76c6fc8640505c32f3c255d56e4432ae1"
                },
                {
                    "hash" : "0xb4b704ad2999fb9c196b6e28848acf51e1bd621e871f86c4815757b3fe445ecc",
                    "indexes" : {
                        "data" : 1,
                        "gas" : 0,
                        "value" : 0
                    },
                    "logs" : "0x1dcc4de8dec75d7aab85b567b6ccd41ad312451b948a7413f0a142fd40d49347",
                    "txbytes" : "0xf880010a83e4e1c094bbbbbbbbbbbbbbbbbbbbbbbbbbbbbbbbbbbbbbbb80a0000000000000000000000000000000000000000000000000000000000000c0011ba03c803b1d3ec8d1cb3d369b7b80bc55f80f584816f772d23f62cc0469823b3974a0047a204016a0970ff2999a2ae517eea953df6e72a3182e7ec60da8ff59f8c522"
                }
            ],
            "Prague" : [
                {
                    "hash" : "0x814b422b4134b7f964e29a3ffb5a23cab1e0b4def6d323867123123d32a179e8",
                    "indexes" : {
                        "data" : 0,
                        "gas" : 0,
                        "value" : 0
                    },
                    "logs" : "0x1dcc4de8dec75d7aab85b567b6ccd41ad312451b948a7413f0a142fd40d49347",
                    "txbytes" : "0xf880010a83e4e1c094bbbbbbbbbbbbbbbbbbbbbbbbbbbbbbbbbbbbbbbb80a0000000000000000000000000000000000000000000000000000000000000c0001ca09c4a169aaa70e40d510a89157262c5a22b69aee3e9ad825b0b3ee27200a9bb01a052fe2384e2c813557c2f0c9cb274f5b76c6fc8640505c32f3c255d56e4432ae1"
                },
                {
                    "hash" : "0xb4b704ad2999fb9c196b6e28848acf51e1bd621e871f86c4815757b3fe445ecc",
                    "indexes" : {
                        "data" : 1,
                        "gas" : 0,
                        "value" : 0
                    },
                    "logs" : "0x1dcc4de8dec75d7aab85b567b6ccd41ad312451b948a7413f0a142fd40d49347",
                    "txbytes" : "0xf880010a83e4e1c094bbbbbbbbbbbbbbbbbbbbbbbbbbbbbbbbbbbbbbbb80a0000000000000000000000000000000000000000000000000000000000000c0011ba03c803b1d3ec8d1cb3d369b7b80bc55f80f584816f772d23f62cc0469823b3974a0047a204016a0970ff2999a2ae517eea953df6e72a3182e7ec60da8ff59f8c522"
                }
            ]
        },
        "pre" : {
            "0x000000000000000000000000000000000000c0de" : {
                "balance" : "0x00",
                "code" : "0x69600a80600080396000f360b01b6000908152355a90600080f0905a9003600a5560005500",
                "nonce" : "0x01",
                "storage" : {
                }
            },
            "0xa94f5374fce5edbc8e2a8697c15331677e6ebf0b" : {
                "balance" : "0x0bebc200",
                "code" : "0x",
                "nonce" : "0x01",
                "storage" : {
                }
            },
            "0xbbbbbbbbbbbbbbbbbbbbbbbbbbbbbbbbbbbbbbbb" : {
                "balance" : "0x00",
                "code" : "0x60003560005260008036818061c0de62989680f16000556001805500",
                "nonce" : "0x01",
                "storage" : {
                }
            }
        },
        "transaction" : {
            "data" : [
                "0x000000000000000000000000000000000000000000000000000000000000c000",
                "0x000000000000000000000000000000000000000000000000000000000000c001"
            ],
            "gasLimit" : [
                "0xe4e1c0"
            ],
            "gasPrice" : "0x0a",
            "nonce" : "0x01",
            "secretKey" : "0x45a915e4d060149eb4365960e6a7a45f334393093061116b197e3240065ff2d8",
            "sender" : "0xa94f5374fce5edbc8e2a8697c15331677e6ebf0b",
            "to" : "0xbbbbbbbbbbbbbbbbbbbbbbbbbbbbbbbbbbbbbbbb",
            "value" : [
                "0x00"
            ]
        }
    }
}