{
    "StoreGasOnCreate" : {
        "_info" : {
            "comment" : "",
            "filling-rpc-server" : "evmone-t8n 0.13.0-31+commit.37e2cffb",
            "filling-tool-version" : "retesteth-0.3.2-legacy+commit.c446cb9e.Linux.g++",
            "generatedTestHash" : "ccf415452abd35e6807d4610a42caa0850f932c46449c61b44e11b7f17e3cdba",
            "lllcversion" : "Version: 0.5.14-develop.2024.11.5+commit.b2b86751.mod.Linux.g++",
            "solidity" : "Version: 0.8.24+commit.e11b9ed9.Linux.g++",
            "source" : "src/GeneralStateTestsFiller/stTransactionTest/StoreGasOnCreateFiller.json",
            "sourceHash" : "66e08b5fda47e8271c0f44488d222ccdace38a2b0fce2c4b14666af5c676a89f"
        },
        "env" : {
            "currentBaseFee" : "0x0a",
            "currentCoinbase" : "0xb94f5374fce5edbc8e2a8697c15331677e6ebf0b",
            "currentDifficulty" : "0x020000",
            "currentExcessBlobGas" : "0x00",
            "currentGasLimit" : "0x0f4240",
            "currentNumber" : "0x01",
            "currentRandom" : "0x0000000000000000000000000000000000000000000000000000000000020000",
            "currentRequestsHash" : "0x6036c41849da9c076ed79654d434017387a88fb833c2856b32e18218b3341c5f",
            "currentTimestamp" : "0x03e8"
        },
        "post" : {
            "Cancun" : [
                {
                    "hash" : "0x4edbc3d50bae8db2f8ae28b78f29fdcc05ce0f44767045c3bd2d8f83b25ea779",
                    "indexes" : {
                        "data" : 0,
                        "gas" : 0,
                        "value" : 0
                    },
                    "logs" : "0x1dcc4de8dec75d7aab85b567b6ccd41ad312451b948a7413f0a142fd40d49347",
                    "txbytes" : "0xf860800a8302032a94b94f5374fce5edbc8e2a8697c15331677e6ebf0b64801ca09f93161a8deeaa73d584470047736aaec71f9543cd1215a18125688db3ef2541a04d12577259d41ff57788b7de2ec7ae6172b990e4ae9612aecdf54b6b472a9ef4"
                }
            ],
            "Prague" : [
                {
                    "hash" : "0x4edbc3d50bae8db2f8ae28b78f29fdcc05ce0f44767045c3bd2d8f83b25ea779",
                    "indexes" : {
                        "data" : 0,
                        "gas" : 0,
                        "value" : 0
                    },
                    "logs" : "0x1dcc4de8dec75d7aab85b567b6ccd41ad312451b948a7413f0a142fd40d49347",
                    "txbytes" : "0xf860800a8302032a94b94f5374fce5edbc8e2a8697c15331677e6ebf0b64801ca09f93161a8deeaa73d584470047736aaec71f9543cd1215a18125688db3ef2541a04d12577259d41ff57788b7de2ec7ae6172b990e4ae9612aecdf54b6b472a9ef4"
                }
            ]
        },
        "pre" : {
            "0xa94f5374fce5edbc8e2a8697c15331677e6ebf0b" : {
                "balance" : "0x17d78400",
                "code" : "0x",
                "nonce" : "0x00",
                "storage" : {
                }
            },
            "0xb94f5374fce5edbc8e2a8697c15331677e6ebf0b" : {
                "balance" : "0x00",
                "code" : "0x635a60fd556000526004601c6000f000",
                "nonce" : "0x00",
                "storage" : {
                }
            }
        },
        "transaction" : {
            "data" : [
                "0x"
            ],
            "gasLimit" : [
                "0x02032a"
            ],
            "gasPrice" : "0x0a",
            "nonce" : "0x00",
            "secretKey" : "0x45a915e4d060149eb4365960e6a7a45f334393093061116b197e3240065ff2d8",
            "sender" : "0xa94f5374fce5edbc8e2a8697c15331677e6ebf0b",
            "to" : "0xb94f5374fce5edbc8e2a8697c15331677e6ebf0b",
            "value" : [
                "0x64"
            ]
        }
    }
}