{
    "shl10" : {
        "_info" : {
            "comment" : "",
            "filling-rpc-server" : "evmone-t8n 0.13.0-31+commit.37e2cffb",
            "filling-tool-version" : "retesteth-0.3.2-legacy+commit.c446cb9e.Linux.g++",
            "generatedTestHash" : "060a1e699047b60bb31bbd388b5adf29309c3c5fcb5779057b46d2772f829970",
            "lllcversion" : "Version: 0.5.14-develop.2024.11.5+commit.b2b86751.mod.Linux.g++",
            "solidity" : "Version: 0.8.24+commit.e11b9ed9.Linux.g++",
            "source" : "src/GeneralStateTestsFiller/stShift/shl10Filler.json",
            "sourceHash" : "396fa01ac493132c42a87fbb1f6d633faace1263f30d711bc3495739c5ed1725"
        },
        "env" : {
            "currentBaseFee" : "0x0a",
            "currentCoinbase" : "0x2adc25665018aa1fe0e6bc666dac8fc2697ff9ba",
            "currentDifficulty" : "0x020000",
            "currentExcessBlobGas" : "0x00",
            "currentGasLimit" : "0x0f4240",
            "currentNumber" : "0x01",
            "currentRandom" : "0x0000000000000000000000000000000000000000000000000000000000020000",
            "currentRequestsHash" : "0x6036c41849da9c076ed79654d434017387a88fb833c2856b32e18218b3341c5f",
            "currentTimestamp" : "0x03e8"
        },
        "post" : {
            "Cancun" : [
                {
                    "hash" : "0x64bcb012ce2caeda4b7c381e16df10d335b93c4ecbb5e3c0dcaeae8cc4733e5e",
                    "indexes" : {
                        "data" : 0,
                        "gas" : 0,
                        "value" : 0
                    },
                    "logs" : "0x1dcc4de8dec75d7aab85b567b6ccd41ad312451b948a7413f0a142fd40d49347",
                    "txbytes" : "0xf863800a83061a8094095e7baea6a6c7c4c2dfeb977efac326af552d87830186a0801ba0ffb600e63115a7362e7811894a91d8ba4330e526f22121c994c4692035dfdfd5a06198379fcac8de3dbfac48b165df4bf88e2088f294b61efb9a65fe2281c76e16"
                }
            ],
            "Prague" : [
                {
                    "hash" : "0x64bcb012ce2caeda4b7c381e16df10d335b93c4ecbb5e3c0dcaeae8cc4733e5e",
                    "indexes" : {
                        "data" : 0,
                        "gas" : 0,
                        "value" : 0
                    },
                    "logs" : "0x1dcc4de8dec75d7aab85b567b6ccd41ad312451b948a7413f0a142fd40d49347",
                    "txbytes" : "0xf863800a83061a8094095e7baea6a6c7c4c2dfeb977efac326af552d87830186a0801ba0ffb600e63115a7362e7811894a91d8ba4330e526f22121c994c4692035dfdfd5a06198379fcac8de3dbfac48b165df4bf88e2088f294b61efb9a65fe2281c76e16"
                }
            ]
        },
        "pre" : {
            "0x095e7baea6a6c7c4c2dfeb977efac326af552d87" : {
                "balance" : "0x0de0b6b3a7640000",
                "code" : "0x600160001b600055",
                "nonce" : "0x00",
                "storage" : {
                    "0x00" : "0x03"
                }
            },
            "0xa94f5374fce5edbc8e2a8697c15331677e6ebf0b" : {
                "balance" : "0x0de0b6b3a7640000",
                "code" : "0x",
                "nonce" : "0x00",
                "storage" : {
                }
            }
        },
        "transaction" : {
            "data" : [
                "0x"
            ],
            "gasLimit" : [
                "0x061a80"
            ],
            "gasPrice" : "0x0a",
            "nonce" : "0x00",
            "secretKey" : "0x45a915e4d060149eb4365960e6a7a45f334393093061116b197e3240065ff2d8",
            "sender" : "0xa94f5374fce5edbc8e2a8697c15331677e6ebf0b",
            "to" : "0x095e7baea6a6c7c4c2dfeb977efac326af552d87",
            "value" : [
                "0x0186a0"
            ]
        }
    }
}