{
    "CallGoesOOGOnSecondLevel2" : {
        "_info" : {
            "comment" : "",
            "filling-rpc-server" : "evmone-t8n 0.13.0-31+commit.37e2cffb",
            "filling-tool-version" : "retesteth-0.3.2-legacy+commit.c446cb9e.Linux.g++",
            "generatedTestHash" : "170469a8e7527a2878ee4ef7a7b6fe24d1f4c4f1fff514ffd88d590d7b61066a",
            "lllcversion" : "Version: 0.5.14-develop.2024.11.5+commit.b2b86751.mod.Linux.g++",
            "solidity" : "Version: 0.8.24+commit.e11b9ed9.Linux.g++",
            "source" : "src/GeneralStateTestsFiller/stEIP150Specific/CallGoesOOGOnSecondLevel2Filler.json",
            "sourceHash" : "1b53ff94dc9baac34243f13e3885d37461cdf360baedb0f4eac71728915df965"
        },
        "env" : {
            "currentBaseFee" : "0x0a",
            "currentCoinbase" : "0x2adc25665018aa1fe0e6bc666dac8fc2697ff9ba",
            "currentDifficulty" : "0x020000",
            "currentExcessBlobGas" : "0x00",
            "currentGasLimit" : "0x989680",
            "currentNumber" : "0x01",
            "currentRandom" : "0x0000000000000000000000000000000000000000000000000000000000020000",
            "currentRequestsHash" : "0x6036c41849da9c076ed79654d434017387a88fb833c2856b32e18218b3341c5f",
            "currentTimestamp" : "0x03e8"
        },
        "post" : {
            "Cancun" : [
                {
                    "hash" : "0xc74d8e1132eedfd2d2b92d87ed2b257bcb1ca2c9c8a9a62e3ce6a8d9db776cb7",
                    "indexes" : {
                        "data" : 0,
                        "gas" : 0,
                        "value" : 0
                    },
                    "logs" : "0x1dcc4de8dec75d7aab85b567b6ccd41ad312451b948a7413f0a142fd40d49347",
                    "txbytes" : "0xf860800a8302710094b94f5374fce5edbc8e2a8697c15331677e6ebf0b80801ca0b82348ddf6471e66281e3b1345454f5e81aad5988b630f9fac1a1ff329654b5ca07f0fdef76d77b5b0e99e39146c4ff9eca5d980dad5228906d0d92dadca34f080"
                }
            ],
            "Prague" : [
                {
                    "hash" : "0xc74d8e1132eedfd2d2b92d87ed2b257bcb1ca2c9c8a9a62e3ce6a8d9db776cb7",
                    "indexes" : {
                        "data" : 0,
                        "gas" : 0,
                        "value" : 0
                    },
                    "logs" : "0x1dcc4de8dec75d7aab85b567b6ccd41ad312451b948a7413f0a142fd40d49347",
                    "txbytes" : "0xf860800a8302710094b94f5374fce5edbc8e2a8697c15331677e6ebf0b80801ca0b82348ddf6471e66281e3b1345454f5e81aad5988b630f9fac1a1ff329654b5ca07f0fdef76d77b5b0e99e39146c4ff9eca5d980dad5228906d0d92dadca34f080"
                }
            ]
        },
        "pre" : {
            "0x1000000000000000000000000000000000000113" : {
                "balance" : "0x00",
                "code" : "0x5a60085560006000600060006000731000000000000000000000000000000000000114620927c0f160095500",
                "nonce" : "0x00",
                "storage" : {
                }
            },
            "0x1000000000000000000000000000000000000114" : {
                "balance" : "0x00",
                "code" : "0x5a600855622fffff60002000",
                "nonce" : "0x00",
                "storage" : {
                }
            },
            "0xa94f5374fce5edbc8e2a8697c15331677e6ebf0b" : {
                "balance" : "0xe8d4a51000",
                "code" : "0x",
                "nonce" : "0x00",
                "storage" : {
                }
            },
            "0xb94f5374fce5edbc8e2a8697c15331677e6ebf0b" : {
                "balance" : "0x00",
                "code" : "0x5a60085560006000600060006000731000000000000000000000000000000000000113620927c0f160095500",
                "nonce" : "0x00",
                "storage" : {
                }
            }
        },
        "transaction" : {
            "data" : [
                "0x"
            ],
            "gasLimit" : [
                "0x027100"
            ],
            "gasPrice" : "0x0a",
            "nonce" : "0x00",
            "secretKey" : "0x45a915e4d060149eb4365960e6a7a45f334393093061116b197e3240065ff2d8",
            "sender" : "0xa94f5374fce5edbc8e2a8697c15331677e6ebf0b",
            "to" : "0xb94f5374fce5edbc8e2a8697c15331677e6ebf0b",
            "value" : [
                "0x00"
            ]
        }
    }
}