{
    "ecrecoverShortBuff" : {
        "_info" : {
            "comment" : "",
            "filling-rpc-server" : "evmone-t8n 0.13.0-31+commit.37e2cffb",
            "filling-tool-version" : "retesteth-0.3.2-legacy+commit.c446cb9e.Linux.g++",
            "generatedTestHash" : "58cfc130e9eaad99d46ab1a25808d2ab6471810e2946a869736b627116967af1",
            "lllcversion" : "Version: 0.5.14-develop.2024.11.5+commit.b2b86751.mod.Linux.g++",
            "solidity" : "Version: 0.8.24+commit.e11b9ed9.Linux.g++",
            "source" : "src/GeneralStateTestsFiller/stPreCompiledContracts2/ecrecoverShortBuffFiller.yml",
            "sourceHash" : "28793e36d2c2c951e51ff88e353f29e4743ed49bde6ce57ae50da5bfb311a04a"
        },
        "env" : {
            "currentBaseFee" : "0x0a",
            "currentCoinbase" : "0x2adc25665018aa1fe0e6bc666dac8fc2697ff9ba",
            "currentDifficulty" : "0x020000",
            "currentExcessBlobGas" : "0x00",
            "currentGasLimit" : "0xff112233445566",
            "currentNumber" : "0x01",
            "currentRandom" : "0x0000000000000000000000000000000000000000000000000000000000020000",
            "currentRequestsHash" : "0x6036c41849da9c076ed79654d434017387a88fb833c2856b32e18218b3341c5f",
            "currentTimestamp" : "0x03e8"
        },
        "post" : {
            "Cancun" : [
                {
                    "hash" : "0xa78b443e8b99766540e64bfa1eab6b5d1a54b2b2db21401d72bec3a0306b6370",
                    "indexes" : {
                        "data" : 0,
                        "gas" : 0,
                        "value" : 0
                    },
                    "logs" : "0x1dcc4de8dec75d7aab85b567b6ccd41ad312451b948a7413f0a142fd40d49347",
                    "txbytes" : "0xf865010a85f00000000094cccccccccccccccccccccccccccccccccccccccc830186a0001ba0dd4cbdafe797bfbdc6cb89ed58ece4d487081d745dce72e37175fd79dcbafdd1a0657260753fd478470034d615f9e6b99e26aae6dc0e6f893926036e18106a863f"
                }
            ],
            "Prague" : [
                {
                    "hash" : "0xa78b443e8b99766540e64bfa1eab6b5d1a54b2b2db21401d72bec3a0306b6370",
                    "indexes" : {
                        "data" : 0,
                        "gas" : 0,
                        "value" : 0
                    },
                    "logs" : "0x1dcc4de8dec75d7aab85b567b6ccd41ad312451b948a7413f0a142fd40d49347",
                    "txbytes" : "0xf865010a85f00000000094cccccccccccccccccccccccccccccccccccccccc830186a0001ba0dd4cbdafe797bfbdc6cb89ed58ece4d487081d745dce72e37175fd79dcbafdd1a0657260753fd478470034d615f9e6b99e26aae6dc0e6f893926036e18106a863f"
                }
            ]
        },
        "pre" : {
            "0xa94f5374fce5edbc8e2a8697c15331677e6ebf0b" : {
                "balance" : "0x0de0b6b3a7640000",
                "code" : "0x",
                "nonce" : "0x01",
                "storage" : {
                }
            },
            "0xcccccccccccccccccccccccccccccccccccccccc" : {
                "balance" : "0x00",
                "code" : "0x60a060005b818110608a575060008052601b6020527f184870a8e4faa6065ddf65c873935d3e48e3d1c7b7853f25cd79b8247f7719106040527f226140b6b66554c7fcfa38589e433cc148ebe5c8482eb3093ab1d9a932c96f5860605260005b818110606757005b806020610100600193600080865af182900381556101005161100082015501605f565b63dead60a7808255611000820155600101600456",
                "nonce" : "0x01",
                "storage" : {
                    "0x00" : "0x60a7",
                    "0x1000" : "0x60a7",
                    "0x1011" : "0x60a7",
                    "0x1022" : "0x60a7",
                    "0x1033" : "0x60a7",
                    "0x1044" : "0x60a7",
                    "0x1055" : "0x60a7",
                    "0x1066" : "0x60a7",
                    "0x1077" : "0x60a7",
                    "0x1080" : "0x60a7",
                    "0x1099" : "0x60a7",
                    "0x11" : "0x60a7",
                    "0x22" : "0x60a7",
                    "0x33" : "0x60a7",
                    "0x44" : "0x60a7",
                    "0x55" : "0x60a7",
                    "0x66" : "0x60a7",
                    "0x77" : "0x60a7",
                    "0x80" : "0x60a7",
                    "0x99" : "0x60a7"
                }
            }
        },
        "transaction" : {
            "data" : [
                "0x00"
            ],
            "gasLimit" : [
                "0xf000000000"
            ],
            "gasPrice" : "0x0a",
            "nonce" : "0x01",
            "secretKey" : "0x45a915e4d060149eb4365960e6a7a45f334393093061116b197e3240065ff2d8",
            "sender" : "0xa94f5374fce5edbc8e2a8697c15331677e6ebf0b",
            "to" : "0xcccccccccccccccccccccccccccccccccccccccc",
            "value" : [
                "0x0186a0"
            ]
        }
    }
}