{
    "Call1024OOG" : {
        "_info" : {
            "comment" : "",
            "filling-rpc-server" : "evmone-t8n 0.13.0-31+commit.37e2cffb",
            "filling-tool-version" : "retesteth-0.3.2-legacy+commit.c446cb9e.Linux.g++",
            "generatedTestHash" : "1eb52753c0c5f880f3650ea571a00a490b07b15d601816976543832b06c6f14f",
            "lllcversion" : "Version: 0.5.14-develop.2024.11.5+commit.b2b86751.mod.Linux.g++",
            "solidity" : "Version: 0.8.24+commit.e11b9ed9.Linux.g++",
            "source" : "src/GeneralStateTestsFiller/stDelegatecallTestHomestead/Call1024OOGFiller.json",
            "sourceHash" : "d6cdbd075a3cf3e658e5c5a4342e9face88b23b26a0b8d833264d91bcb20faaf"
        },
        "env" : {
            "currentBaseFee" : "0x0a",
            "currentCoinbase" : "0xb94f5374fce5edbc8e2a8697c15331677e6ebf0b",
            "currentDifficulty" : "0x020000",
            "currentExcessBlobGas" : "0x00",
            "currentGasLimit" : "0x7fffffffffffffff",
            "currentNumber" : "0x01",
            "currentRandom" : "0x0000000000000000000000000000000000000000000000000000000000020000",
            "currentRequestsHash" : "0x6036c41849da9c076ed79654d434017387a88fb833c2856b32e18218b3341c5f",
            "currentTimestamp" : "0x03e8"
        },
        "post" : {
            "Cancun" : [
                {
                    "hash" : "0x567ae41dab63c650287c44ac0c99c1946b90dfecb60784e706f7bf2d1db2feaa",
                    "indexes" : {
                        "data" : 0,
                        "gas" : 0,
                        "value" : 0
                    },
                    "logs" : "0x1dcc4de8dec75d7aab85b567b6ccd41ad312451b948a7413f0a142fd40d49347",
                    "txbytes" : "0xf860800a83c8353a94bbbf5374fce5edbc8e2a8697c15331677e6ebf0b0a801ca014c4ac8efa19723d893b27c12947bb1cc54d3fb255456bde809d5eeacc8097c8a04214b1cf469a2dcb91dc815d900653e74c7ab9116f8b862243f2e526ee7445c5"
                },
                {
                    "hash" : "0xf0a9d54c9e9ae8a9500af004bc5a4bfaa136fef8b56f105d9db0530dedd23051",
                    "indexes" : {
                        "data" : 0,
                        "gas" : 1,
                        "value" : 0
                    },
                    "logs" : "0x1dcc4de8dec75d7aab85b567b6ccd41ad312451b948a7413f0a142fd40d49347",
                    "txbytes" : "0xf860800a83efe17a94bbbf5374fce5edbc8e2a8697c15331677e6ebf0b0a801ca02ba8393604eee5a91085dcc638a570907c65d83112b9d041fc9b096903510ba6a03436ebb8869c02355de0405ca29f940bdbf821b9ea2e7ea883abdb701114bcd4"
                }
            ],
            "Prague" : [
                {
                    "hash" : "0x567ae41dab63c650287c44ac0c99c1946b90dfecb60784e706f7bf2d1db2feaa",
                    "indexes" : {
                        "data" : 0,
                        "gas" : 0,
                        "value" : 0
                    },
                    "logs" : "0x1dcc4de8dec75d7aab85b567b6ccd41ad312451b948a7413f0a142fd40d49347",
                    "txbytes" : "0xf860800a83c8353a94bbbf5374fce5edbc8e2a8697c15331677e6ebf0b0a801ca014c4ac8efa19723d893b27c12947bb1cc54d3fb255456bde809d5eeacc8097c8a04214b1cf469a2dcb91dc815d900653e74c7ab9116f8b862243f2e526ee7445c5"
                },
                {
                    "hash" : "0xf0a9d54c9e9ae8a9500af004bc5a4bfaa136fef8b56f105d9db0530dedd23051",
                    "indexes" : {
                        "data" : 0,
                        "gas" : 1,
                        "value" : 0
                    },
                    "logs" : "0x1dcc4de8dec75d7aab85b567b6ccd41ad312451b948a7413f0a142fd40d49347",
                    "txbytes" : "0xf860800a83efe17a94bbbf5374fce5edbc8e2a8697c15331677e6ebf0b0a801ca02ba8393604eee5a91085dcc638a570907c65d83112b9d041fc9b096903510ba6a03436ebb8869c02355de0405ca29f940bdbf821b9ea2e7ea883abdb701114bcd4"
                }
            ]
        },
        "pre" : {
            "0xa94f5374fce5edbc8e2a8697c15331677e6ebf0b" : {
                "balance" : "0xffffffffffffffffffffffffffffffff",
                "code" : "0x",
                "nonce" : "0x00",
                "storage" : {
                }
            },
            "0xaaaf5374fce5edbc8e2a8697c15331677e6ebf0b" : {
                "balance" : "0x1b58",
                "code" : "0x",
                "nonce" : "0x00",
                "storage" : {
                }
            },
            "0xbbbf5374fce5edbc8e2a8697c15331677e6ebf0b" : {
                "balance" : "0x0400",
                "code" : "0x600160005401600055600060006000600073bbbf5374fce5edbc8e2a8697c15331677e6ebf0b610401600054046001036127105a0302f46001556103e86000540260010160025500",
                "nonce" : "0x00",
                "storage" : {
                }
            }
        },
        "transaction" : {
            "data" : [
                "0x"
            ],
            "gasLimit" : [
                "0xc8353a",
                "0xefe17a"
            ],
            "gasPrice" : "0x0a",
            "nonce" : "0x00",
            "secretKey" : "0x45a915e4d060149eb4365960e6a7a45f334393093061116b197e3240065ff2d8",
            "sender" : "0xa94f5374fce5edbc8e2a8697c15331677e6ebf0b",
            "to" : "0xbbbf5374fce5edbc8e2a8697c15331677e6ebf0b",
            "value" : [
                "0x0a"
            ]
        }
    }
}