{
    "delegatecallInInitcodeToExistingContractOOG" : {
        "_info" : {
            "comment" : "",
            "filling-rpc-server" : "evmone-t8n 0.13.0-31+commit.37e2cffb",
            "filling-tool-version" : "retesteth-0.3.2-legacy+commit.c446cb9e.Linux.g++",
            "generatedTestHash" : "e94d08da6e69e1d230de99a55544b18b9afd18d52199c1646c4049685a9f7deb",
            "lllcversion" : "Version: 0.5.14-develop.2024.11.5+commit.b2b86751.mod.Linux.g++",
            "solidity" : "Version: 0.8.24+commit.e11b9ed9.Linux.g++",
            "source" : "src/GeneralStateTestsFiller/stDelegatecallTestHomestead/delegatecallInInitcodeToExistingContractOOGFiller.json",
            "sourceHash" : "2a0fb49faa15ca5273bfdaa0498b0082ec418721e61ea7846993b9244dcb4a62"
        },
        "env" : {
            "currentBaseFee" : "0x0a",
            "currentCoinbase" : "0x2adc25665018aa1fe0e6bc666dac8fc2697ff9ba",
            "currentDifficulty" : "0x020000",
            "currentExcessBlobGas" : "0x00",
            "currentGasLimit" : "0x0f4240",
            "currentNumber" : "0x01",
            "currentRandom" : "0x0000000000000000000000000000000000000000000000000000000000020000",
            "currentRequestsHash" : "0x6036c41849da9c076ed79654d434017387a88fb833c2856b32e18218b3341c5f",
            "currentTimestamp" : "0x03e8"
        },
        "post" : {
            "Cancun" : [
                {
                    "hash" : "0x19295f5262a7594cfb6dfda53c7a5e4285c510b936956837cc6860e570a9462f",
                    "indexes" : {
                        "data" : 0,
                        "gas" : 0,
                        "value" : 0
                    },
                    "logs" : "0x1dcc4de8dec75d7aab85b567b6ccd41ad312451b948a7413f0a142fd40d49347",
                    "txbytes" : "0xf860800a8302560894100000000000000000000000000000000000000080801ca0bc609c065cb35258847ed84a8977898f4220b6aab011177c41a7eb2665ac3f36a0626d6b3e4f528307f1bbedaaa05858ec2ab20950e725f9dcd74883524b0fa4f9"
                }
            ],
            "Prague" : [
                {
                    "hash" : "0x19295f5262a7594cfb6dfda53c7a5e4285c510b936956837cc6860e570a9462f",
                    "indexes" : {
                        "data" : 0,
                        "gas" : 0,
                        "value" : 0
                    },
                    "logs" : "0x1dcc4de8dec75d7aab85b567b6ccd41ad312451b948a7413f0a142fd40d49347",
                    "txbytes" : "0xf860800a8302560894100000000000000000000000000000000000000080801ca0bc609c065cb35258847ed84a8977898f4220b6aab011177c41a7eb2665ac3f36a0626d6b3e4f528307f1bbedaaa05858ec2ab20950e725f9dcd74883524b0fa4f9"
                }
            ]
        },
        "pre" : {
            "0x1000000000000000000000000000000000000000" : {
                "balance" : "0x2710",
                "code" : "0x7f604060006040600073945304eb96065b2a98b57a48a06ae28d285a71b56201866000527fa0f4600a5533600b550000000000000000000000000000000000000000000000602052604060006005f000",
                "nonce" : "0x00",
                "storage" : {
                }
            },
            "0x945304eb96065b2a98b57a48a06ae28d285a71b5" : {
                "balance" : "0x00",
                "code" : "0x600160025500",
                "nonce" : "0x00",
                "storage" : {
                }
            },
            "0xa94f5374fce5edbc8e2a8697c15331677e6ebf0b" : {
                "balance" : "0x2386f26fc10000",
                "code" : "0x",
                "nonce" : "0x00",
                "storage" : {
                }
            }
        },
        "transaction" : {
            "data" : [
                "0x"
            ],
            "gasLimit" : [
                "0x025608"
            ],
            "gasPrice" : "0x0a",
            "nonce" : "0x00",
            "secretKey" : "0x45a915e4d060149eb4365960e6a7a45f334393093061116b197e3240065ff2d8",
            "sender" : "0xa94f5374fce5edbc8e2a8697c15331677e6ebf0b",
            "to" : "0x1000000000000000000000000000000000000000",
            "value" : [
                "0x00"
            ]
        }
    }
}