{
    "returndatacopy_after_failing_delegatecall" : {
        "_info" : {
            "comment" : "",
            "filling-rpc-server" : "evmone-t8n 0.13.0-31+commit.37e2cffb",
            "filling-tool-version" : "retesteth-0.3.2-legacy+commit.c446cb9e.Linux.g++",
            "generatedTestHash" : "daa5efb3a90f5dfc9db2e44f607ba8f6c56a60b5d0e47f6223376c3ecbccadaf",
            "lllcversion" : "Version: 0.5.14-develop.2024.11.5+commit.b2b86751.mod.Linux.g++",
            "solidity" : "Version: 0.8.24+commit.e11b9ed9.Linux.g++",
            "source" : "src/GeneralStateTestsFiller/stReturnDataTest/returndatacopy_after_failing_delegatecallFiller.json",
            "sourceHash" : "24d56262d613e154672c15edd334836060f2adb0850a73679fd79369d4180864"
        },
        "env" : {
            "currentBaseFee" : "0x0a",
            "currentCoinbase" : "0x2adc25665018aa1fe0e6bc666dac8fc2697ff9ba",
            "currentDifficulty" : "0x020000",
            "currentExcessBlobGas" : "0x00",
            "currentGasLimit" : "0x1a00000000",
            "currentNumber" : "0x01",
            "currentRandom" : "0x0000000000000000000000000000000000000000000000000000000000020000",
            "currentRequestsHash" : "0x6036c41849da9c076ed79654d434017387a88fb833c2856b32e18218b3341c5f",
            "currentTimestamp" : "0x03e8"
        },
        "post" : {
            "Cancun" : [
                {
                    "hash" : "0x8dfea1ed732eb1f9037fa880cbdceaf8954583c99b6ef4b3f2d924011bc78ef1",
                    "indexes" : {
                        "data" : 0,
                        "gas" : 0,
                        "value" : 0
                    },
                    "logs" : "0x1dcc4de8dec75d7aab85b567b6ccd41ad312451b948a7413f0a142fd40d49347",
                    "txbytes" : "0xf862800a850a00000000940f572e5295c57f15886f9b263e2f6d2d6c7b5ec680801ba0be56d61b678ad2c41b294c70b5213913b9a6f17753ba7aadc171c9a2474f66a8a04814800401028ca339e8af9f4a6253bddd3f9df8f1dc6da275d19862e9f28642"
                }
            ],
            "Prague" : [
                {
                    "hash" : "0x8dfea1ed732eb1f9037fa880cbdceaf8954583c99b6ef4b3f2d924011bc78ef1",
                    "indexes" : {
                        "data" : 0,
                        "gas" : 0,
                        "value" : 0
                    },
                    "logs" : "0x1dcc4de8dec75d7aab85b567b6ccd41ad312451b948a7413f0a142fd40d49347",
                    "txbytes" : "0xf862800a850a00000000940f572e5295c57f15886f9b263e2f6d2d6c7b5ec680801ba0be56d61b678ad2c41b294c70b5213913b9a6f17753ba7aadc171c9a2474f66a8a04814800401028ca339e8af9f4a6253bddd3f9df8f1dc6da275d19862e9f28642"
                }
            ]
        },
        "pre" : {
            "0x0f572e5295c57f15886f9b263e2f6d2d6c7b5ec6" : {
                "balance" : "0x100000",
                "code" : "0x",
                "nonce" : "0x00",
                "storage" : {
                }
            },
            "0x1000000000000000000000000000000000000001" : {
                "balance" : "0x00",
                "code" : "0x6000600060006000731000000000000000000000000000000000000002612710f4506020600060003e60005160005500",
                "nonce" : "0x00",
                "storage" : {
                    "0x00" : "0xffffffffffffffffffffffffffffffffffffffffffffffffffffffffffffffff"
                }
            },
            "0x1000000000000000000000000000000000000002" : {
                "balance" : "0x6400000000",
                "code" : "0xfd",
                "nonce" : "0x00",
                "storage" : {
                }
            },
            "0xa94f5374fce5edbc8e2a8697c15331677e6ebf0b" : {
                "balance" : "0x6400000000",
                "code" : "0x",
                "nonce" : "0x00",
                "storage" : {
                }
            }
        },
        "transaction" : {
            "data" : [
                "0x"
            ],
            "gasLimit" : [
                "0x0a00000000"
            ],
            "gasPrice" : "0x0a",
            "nonce" : "0x00",
            "secretKey" : "0x45a915e4d060149eb4365960e6a7a45f334393093061116b197e3240065ff2d8",
            "sender" : "0xa94f5374fce5edbc8e2a8697c15331677e6ebf0b",
            "to" : "0x0f572e5295c57f15886f9b263e2f6d2d6c7b5ec6",
            "value" : [
                "0x00"
            ]
        }
    }
}