{
    "returndatasize_after_successful_callcode" : {
        "_info" : {
            "comment" : "",
            "filling-rpc-server" : "evmone-t8n 0.13.0-31+commit.37e2cffb",
            "filling-tool-version" : "retesteth-0.3.2-legacy+commit.c446cb9e.Linux.g++",
            "generatedTestHash" : "01919b5de36e20d496f99d1c7289bf7e3e2f7de90b8b3fe8d8cb5ebb4b65407b",
            "lllcversion" : "Version: 0.5.14-develop.2024.11.5+commit.b2b86751.mod.Linux.g++",
            "solidity" : "Version: 0.8.24+commit.e11b9ed9.Linux.g++",
            "source" : "src/GeneralStateTestsFiller/stReturnDataTest/returndatasize_after_successful_callcodeFiller.json",
            "sourceHash" : "05d3ca233de066fcaaa67c52baccaa0093c5fcb4e019738b0a2fdd3f9066fca8"
        },
        "env" : {
            "currentBaseFee" : "0x0a",
            "currentCoinbase" : "0x2adc25665018aa1fe0e6bc666dac8fc2697ff9ba",
            "currentDifficulty" : "0x020000",
            "currentExcessBlobGas" : "0x00",
            "currentGasLimit" : "0x1a00000000",
            "currentNumber" : "0x01",
            "currentRandom" : "0x0000000000000000000000000000000000000000000000000000000000020000",
            "currentRequestsHash" : "0x6036c41849da9c076ed79654d434017387a88fb833c2856b32e18218b3341c5f",
            "currentTimestamp" : "0x03e8"
        },
        "post" : {
            "Cancun" : [
                {
                    "hash" : "0x1b0d1934602c8eb1a86557a4b22cbdfa4d00809e6140f139a3a16a21fbec4efb",
                    "indexes" : {
                        "data" : 0,
                        "gas" : 0,
                        "value" : 0
                    },
                    "logs" : "0x1dcc4de8dec75d7aab85b567b6ccd41ad312451b948a7413f0a142fd40d49347",
                    "txbytes" : "0xf862800a850a00000000940f572e5295c57f15886f9b263e2f6d2d6c7b5ec680801ba0be56d61b678ad2c41b294c70b5213913b9a6f17753ba7aadc171c9a2474f66a8a04814800401028ca339e8af9f4a6253bddd3f9df8f1dc6da275d19862e9f28642"
                }
            ],
            "Prague" : [
                {
                    "hash" : "0x1b0d1934602c8eb1a86557a4b22cbdfa4d00809e6140f139a3a16a21fbec4efb",
                    "indexes" : {
                        "data" : 0,
                        "gas" : 0,
                        "value" : 0
                    },
                    "logs" : "0x1dcc4de8dec75d7aab85b567b6ccd41ad312451b948a7413f0a142fd40d49347",
                    "txbytes" : "0xf862800a850a00000000940f572e5295c57f15886f9b263e2f6d2d6c7b5ec680801ba0be56d61b678ad2c41b294c70b5213913b9a6f17753ba7aadc171c9a2474f66a8a04814800401028ca339e8af9f4a6253bddd3f9df8f1dc6da275d19862e9f28642"
                }
            ]
        },
        "pre" : {
            "0x0f572e5295c57f15886f9b263e2f6d2d6c7b5ec6" : {
                "balance" : "0x00",
                "code" : "0x6000600060006000600073100000000000000000000000000000000000000261ea60f2503d60005500",
                "nonce" : "0x00",
                "storage" : {
                }
            },
            "0x1000000000000000000000000000000000000002" : {
                "balance" : "0x6400000000",
                "code" : "0x7fffffffffffffffffffffffffffffffffffffffffffffffffffffffffffffffff60005260066000f300",
                "nonce" : "0x00",
                "storage" : {
                }
            },
            "0xa94f5374fce5edbc8e2a8697c15331677e6ebf0b" : {
                "balance" : "0x6400000000",
                "code" : "0x",
                "nonce" : "0x00",
                "storage" : {
                }
            }
        },
        "transaction" : {
            "data" : [
                "0x"
            ],
            "gasLimit" : [
                "0x0a00000000"
            ],
            "gasPrice" : "0x0a",
            "nonce" : "0x00",
            "secretKey" : "0x45a915e4d060149eb4365960e6a7a45f334393093061116b197e3240065ff2d8",
            "sender" : "0xa94f5374fce5edbc8e2a8697c15331677e6ebf0b",
            "to" : "0x0f572e5295c57f15886f9b263e2f6d2d6c7b5ec6",
            "value" : [
                "0x00"
            ]
        }
    }
}