{
    "CREATE_FirstByte_loop" : {
        "_info" : {
            "comment" : "",
            "filling-rpc-server" : "evmone-t8n 0.13.0-31+commit.37e2cffb",
            "filling-tool-version" : "retesteth-0.3.2-legacy+commit.c446cb9e.Linux.g++",
            "generatedTestHash" : "815e8e90e2eb78f6eb0b41830babd0106c5976f28b5829da5cb8de8f7415e789",
            "lllcversion" : "Version: 0.5.14-develop.2024.11.5+commit.b2b86751.mod.Linux.g++",
            "solidity" : "Version: 0.8.24+commit.e11b9ed9.Linux.g++",
            "source" : "src/GeneralStateTestsFiller/stCreateTest/CREATE_FirstByte_loopFiller.yml",
            "sourceHash" : "fadda950f623334d645c42c5adc424f7196676d05ccc8bbf0a30fd610dcf7c2a"
        },
        "env" : {
            "currentBaseFee" : "0x0a",
            "currentCoinbase" : "0x2adc25665018aa1fe0e6bc666dac8fc2697ff9ba",
            "currentDifficulty" : "0x020000",
            "currentExcessBlobGas" : "0x00",
            "currentGasLimit" : "0x05500000",
            "currentNumber" : "0x01",
            "currentRandom" : "0x0000000000000000000000000000000000000000000000000000000000020000",
            "currentRequestsHash" : "0x6036c41849da9c076ed79654d434017387a88fb833c2856b32e18218b3341c5f",
            "currentTimestamp" : "0x03e8"
        },
        "post" : {
            "Cancun" : [
                {
                    "hash" : "0x2175740ddd46789adc9b63ebbcb751046e6f7440931dfcec2ed700577e6fd431",
                    "indexes" : {
                        "data" : 0,
                        "gas" : 0,
                        "value" : 0
                    },
                    "logs" : "0x1dcc4de8dec75d7aab85b567b6ccd41ad312451b948a7413f0a142fd40d49347",
                    "txbytes" : "0xf861800a84042c1d8094b94f5374fce5edbc8e2a8697c15331677e6ebf0b80801ca0f141d67812db948c9a4ea43c27d695248205c121ae8d924d23517ab09e38f369a03fe3cfedb4c9a7e61340b6fec87917690e92082f752ad820ad5006c7d49185ed"
                }
            ],
            "Prague" : [
                {
                    "hash" : "0x2175740ddd46789adc9b63ebbcb751046e6f7440931dfcec2ed700577e6fd431",
                    "indexes" : {
                        "data" : 0,
                        "gas" : 0,
                        "value" : 0
                    },
                    "logs" : "0x1dcc4de8dec75d7aab85b567b6ccd41ad312451b948a7413f0a142fd40d49347",
                    "txbytes" : "0xf861800a84042c1d8094b94f5374fce5edbc8e2a8697c15331677e6ebf0b80801ca0f141d67812db948c9a4ea43c27d695248205c121ae8d924d23517ab09e38f369a03fe3cfedb4c9a7e61340b6fec87917690e92082f752ad820ad5006c7d49185ed"
                }
            ]
        },
        "pre" : {
            "0xa94f5374fce5edbc8e2a8697c15331677e6ebf0b" : {
                "balance" : "0x3b9aca00",
                "code" : "0x",
                "nonce" : "0x00",
                "storage" : {
                }
            },
            "0xb94f5374fce5edbc8e2a8697c15331677e6ebf0b" : {
                "balance" : "0x00",
                "code" : "0x7f600060005360016000f30000000000000000000000000000000000000000000060009081525b6101008110603657600161010055005b806001918253600a600080f015604c575b016026565b818155604756",
                "nonce" : "0x00",
                "storage" : {
                }
            }
        },
        "transaction" : {
            "data" : [
                "0x"
            ],
            "gasLimit" : [
                "0x042c1d80"
            ],
            "gasPrice" : "0x0a",
            "nonce" : "0x00",
            "secretKey" : "0x45a915e4d060149eb4365960e6a7a45f334393093061116b197e3240065ff2d8",
            "sender" : "0xa94f5374fce5edbc8e2a8697c15331677e6ebf0b",
            "to" : "0xb94f5374fce5edbc8e2a8697c15331677e6ebf0b",
            "value" : [
                "0x00"
            ]
        }
    }
}